:100000000221E41228CF122AE77F0C122951E4FFC3
:10001000122B58E4FF1229700221410219CF8B39AB
:100020008A3A893B9000251210ED000000009000F4
:10003000291210ED0000000090002D1210ED0000BC
:1000400000009000311210ED000000009000351209
:1000500010ED000000009000391210ED00000000CB
:1000600090003D1210ED000000009000411210EDD4
:10007000000000009000451210ED00000000E94A69
:100080004B6008E53E453D453C70037F0122AB399E
:10009000AA3AA93B120F53FFD39463748094804013
:1000A000047F638000E4FCFDFE9000251210E190C7
:1000B0000002120F6CFF7E00D3940C748094804079
:1000C000047F0C801CC3EF9401EE64809480500484
:1000D0007F01800DAB39AA3AA93B900002120F6C48
:1000E000FFE4FCFDFE9000291210E1AB39AA3AA909
:1000F0003B900003120F6CFF7E00D3941F7480941A
:100100008040047F1F801CC3EF9401EE64809480C4
:1001100050047F01800DAB39AA3AA93B900003122D
:100120000F6CFFE4FCFDFE90002D1210E190002505
:10013000A3A3E0FEA3E0902BA575F00412111EEE20
:1001400025E025E02583F5831210C1EF5460FFE41C
:10015000FEFDFC7805121087E47B01FAF9F8C31262
:1001600010769000257030A3A3E0FEA3E0902BA5AD
:1001700075F00412111EEE25E025E02583F58312AB
:1001800010C1EF541FFFEF24FFFFE434FFFEE434FF
:10019000FFFDE434FF802BA3A3E0FEA3E0902BA59A
:1001A00075F00412111EEE25E025E02583F583127B
:1001B00010C1EF541FFFEF241EFFE433FEE433FDB4
:1001C000E433FC9000311210E1900029A3A3E0FE7B
:1001D000A3E0902D3375F00212111EEE25E0258369
:1001E000F583E493FE740193FFE4FCFD90002DE0A1
:1001F000F8A3E0F9A3E0FAA3E02FFFEA3EFEED3911
:10020000FDEC38FCEF24FFFFEE34FFFEED34FFFD84
:10021000EC34FFFC9000351210E1E47B04FAF9F8AD
:10022000900025E0FCA3E0FDA3E0FEA3E0FF122682
:100230008DAC00AD01AE02AF03EC4D4E4F703E7F72
:1002400002FEFDFC900029E0F8A3E0F9A3E0FAA388
:10025000E0FBD31210604025900035E0FCA3E0FDE8
:10026000A3E0FEA3E0FFE4FAF9F8EF2401FFEA3E81
:10027000FEE93DFDE83CFC9000351210E1900031B4
:10028000E0FCA3E0FDA3E0FEA3E0FFA3E0F8A3E011
:10029000F9A3E0FAA3E0FBC312106050030204C606
:1002A000900035E0FCA3E0FDA3E0FEA3E0FF90009A
:1002B00031E0F8A3E0F9A3E0FAA3E0FBEF9BFFEE47
:1002C0009AFEED99FDEC98FCA31210E19000291222
:1002D00010ED0000000190003D1210ED0000000143
:1002E0009000411210ED0000000090003DA3A3A378
:1002F000E014F9E4FFFE7D08FCA80112109A9000BA
:1003000025A3A3E0FAA3E0902BA575F00412111E1B
:10031000EA25E025E02583F5831210D1EB5FFFEAA3
:100320005EFEE95DFDE85CFCE4FBFAF9F8C312103F
:100330007690003970091210ED0000001D80071240
:1003400010ED0000001E900039E0FCA3E0FDA3E0EA
:10035000FEA3E0FF900035E0F8A3E0F9A3E0FAA3E4
:10036000E0FBC312106050030204B6900035E0FCBD
:10037000A3E0FDA3E0FEA3E0FFA3E0F8A3E0F9A360
:10038000E0FAA3E0FBEF9BFFEE9AFEED99FDEC98FF
:10039000FC9000351210E190003DE0FCA3E0FDA3CD
:1003A000E0FEA3E0FFE4FAF9F8EF2401FFEA3EFEE5
:1003B000E93DFDE83CFC90003D1210E1900025A3D2
:1003C000A3E0FEA3E0902BA575F00412111EEE250C
:1003D000E025E02583F5831210C1E4FFFEED54F023
:1003E000FDE4FC7814121087A804A905AA06AB073F
:1003F000900029E0FCA3E0FDA3E0FEA3E0FFC31210
:100400001076702D900041E0FCA3E0FDA3E0FEA378
:10041000E0FF1210539000411210E1900041E0FC07
:10042000A3E0FDA3E0FEA3E0FFEC4D4E4F7027805C
:1004300000900029E0FCA3E0FDA3E0FEA3E0FFE4C0
:10044000FAF9F8EF2401FFEA3EFEE93DFDE83CFC45
:100450009000291210E190003DA3A3A3E014F9E459
:10046000FFFE7D08FCA80112109A900025A3A3E0CE
:10047000FAA3E0902BA575F00412111EEA25E025E1
:10048000E02583F5831210D1EB5FFFEA5EFEE95DA4
:10049000FDE85CFCE4FBFAF9F8C312107690003931
:1004A000700A1210ED0000001D0203461210ED004C
:1004B00000001E020346900035E0FCA3E0FDA3E02F
:1004C000FEA3E0020767900031E0FCA3E0FDA3E09B
:1004D000FEA3E0FFA3E0F8A3E0F9A3E0FAA3E0FBAA
:1004E000C3EF9BFFEE9AFEED99FDEC98FC90003176
:1004F0001210E1900025E0FCA3E0FDA3E0FEA3E0E4
:10050000FFEF24FFFFEE34FFFEED34FFFDEC34FF80
:10051000FC9000251210E19000291210ED0000005F
:100520000C900025A3A3E0FEA3E0902BA575F0049A
:1005300012111EEE25E025E02583F5831210C1E49B
:10054000FFFEED54F0FDE4FC7814121087E4FBFA92
:10055000F9F8C312107690003D70091210ED0000FA
:10056000000C80071210ED0000000D9000411210E9
:10057000ED0000000090003DA3A3A3E014F9E4FF08
:10058000FE7D08FCA80112109A900025A3A3E0FAB2
:10059000A3E0902BA575F00412111EEA25E025E0DA
:1005A0002583F5831210D1EB5FFFEA5EFEE95DFD66
:1005B000E85CFCE4FBFAF9F8C3121076900039709D
:1005C000091210ED0000001D80071210ED00000060
:1005D0001E900039E0FCA3E0FDA3E0FEA3E0FF9045
:1005E0000031E0F8A3E0F9A3E0FAA3E0FBD3121096
:1005F00060500302073F900031E0FCA3E0FDA3E060
:10060000FEA3E0FF900039E0F8A3E0F9A3E0FAA32D
:10061000E0FBEF9BFFEE9AFEED99FDEC98FC90005D
:10062000311210E190003DE0FCA3E0FDA3E0FEA349
:10063000E0FFEF24FFFFEE34FFFEED34FFFDEC346E
:10064000FFFC90003D1210E1900041E0FCA3E0FDB2
:10065000A3E0FEA3E0FFEC4D4E4F7024900029E094
:10066000FCA3E0FDA3E0FEA3E0FFEF24FFFFEE34D8
:10067000FFFEED34FFFDEC34FFFC9000291210E189
:10068000900025A3A3E0FEA3E0902BA575F0041233
:10069000111EEE25E025E02583F5831210C1E4FF4D
:1006A000FEED54F0FDE4FC7814121087A804A905AF
:1006B000AA06AB07900029E0FCA3E0FDA3E0FEA39F
:1006C000E0FFC31210767017900041E0FCA3E0FD3C
:1006D000A3E0FEA3E0FF1210539000411210E1903E
:1006E000003DA3A3A3E014F9E4FFFE7D08FCA801EC
:1006F00012109A900025A3A3E0FAA3E0902BA57511
:10070000F00412111EEA25E025E02583F58312107E
:10071000D1EB5FFFEA5EFEE95DFDE85CFCE4FBFA1D
:10072000F9F8C3121076900039700A1210ED00002B
:10073000001D0205D11210ED0000001E0205D1902F
:100740000031E0F8A3E0F9A3E0FAA3E0FB90003960
:10075000E0FCA3E0FDA3E0FEA3E0C39BFFEE9AFE56
:10076000ED99FDEC98FCEF2401FFE43EFEE43DFD35
:10077000E43CFC90002D1210E1900045E0F8A3E06D
:10078000F9A3E0FAA3E0FB90002DE0FCA3E0FDA3B9
:10079000E0FEA3E0FFEB4FFFEA4EFEE94DFDE84C23
:1007A000FC9000451210E1900045E0F8A3E0F9A3A9
:1007B000E0FAA3E0FBC000900029E0FCA3E0FDA369
:1007C000E0FEA3E0FF78061210AED000EB4FFFEA88
:1007D0004EFEE94DFDE84CFC9000451210E1900002
:1007E00045A3A3A3E0543FFFAB3CAA3DA93E900024
:1007F00002EF120FAB900045A3A3E0FEA3E054C0AC
:10080000FFEE5403FEE4FDFC7806121087EF120F92
:1008100099900025A3A3E0FEA3E0902BA575F0041A
:1008200012111EEE25E025E02583F5831210C1E4A8
:10083000FFFEED54F0FDE4FC7814121087A804A923
:1008400005AA06AB07900029E0FCA3E0FDA3E0FEAB
:10085000A3E0FFC3121076AB3CAA3DA93E90000175
:100860007003048001E4120FAB7F0022E4F521F550
:1008700022F52375241A75252A75262075273A75C1
:10088000284A752950752A6A752B5A782C7C00FDE8
:100890007BFF7A2D7969FE7F07120F2D78007C008F
:1008A0007D017BFF7A2D79707E007F07120F2D78F6
:1008B000077C007D017BFF7A2D79777E007F071210
:1008C0000F2D780E7C007D017BFF7A2D797E7E00D6
:1008D0007F03120F2D78117C007D017BFF7A2D792B
:1008E000817E007F08120F2D78197C007D017BFF2F
:1008F0007A2D79897E007F08120F2DE4F533F534C7
:10090000F535122B80120003122B9F7B017A0079A0
:1009100011122A70EF60127B017A0079111225B151
:100920001229AEEF6003020E5A1227CB7F1E7E0003
:100930001227147F1E7E001225FF1229118F2375A6
:100940002B5AEF7003020C31E4F533F534E52464DF
:10095000207012122AE775241A753397E4F5237F65
:100960001EFE122714E52324567003020B0724EF02
:100970007003020B8A147003020A1D24F070030234
:100980000BBF147003020BFF24EF7003020C202432
:10099000336003020C310524C3E524941F74809452
:1009A00080400375241AE524641A700E752620759C
:1009B000252AFBFA7D04FF122646E524641B7017E6
:1009C00075273A7B017A0079001217737B037A004E
:1009D0007D027F02122646E524641C701775284AA2
:1009E0007B017A0079071217737B037A007D027FFF
:1009F00002122646E524641E7011752950121CF758
:100A00007B037A007D027F02122646E524641D6086
:100A100003020C31752A6A121CF7020BF2E52464FA
:100A20001B703B7B017A007907121773900007E077
:100A3000900000F0900008E0900001F0900009E0C4
:100A4000900002F090000AE0900003F07B017A0031
:100A50007900121464E4FBFA7D04FF122646E524B3
:100A6000641C70337B017A007900121773900004C4
:100A7000E090000BF0900005E090000CF090000674
:100A8000E090000DF07B017A007907121464E4FB1A
:100A9000FA7D04FF122646E524641E702175390193
:100AA000753A00753B197B017A007911121D061207
:100AB00029AE1227CBE4FBFA7D04FF122646E5247B
:100AC000641D701E753901753A00753B197B017AFA
:100AD000007911121D061229AEE4FBFA7D04FF1203
:100AE0002646E524641A6003020C310526C3E52678
:100AF0009423748094804003752620E5266420703A
:100B000003020C31020C1BAF247E00EF641A701636
:100B1000E526642070100525C3E525942F74809484
:100B200080400375252AEF641B4E70100527C3E52E
:100B300027943D74809480400375273AE524641C13
:100B400070100528C3E528944E7480948040037586
:100B5000284AAF247E00EF641E70100529C3E529E2
:100B60009453748094804003752950EF641D4E6047
:100B700003020C31052AC3E52A946F7480948050D7
:100B800003020C31752A6A020C31AF247E00EF6437
:100B90001A70100526C3E5269423748094804003C0
:100BA000752620EF641B4E6011AF24EF641C600AB1
:100BB000EF641E6005EF641D7077752B5B8033AFAB
:100BC000247E00EF641A70101526C3E52694207465
:100BD0008094805003752622EF641B4E6011AF2471
:100BE000EF641C600AEF641E6005EF641D704275BF
:100BF0002B5C7B037A007D027F021226468032E561
:100C000024641A702C1526C3E526942074809480E1
:100C10005003752622E52664206016753401801184
:100C2000E524641A700B752420F5337F1EFE12250F
:100C3000FF0533E5346003E4F533D3E5339496E4FC
:100C40009400400C75241A75262075252AE4F53386
:100C5000E524641A7008FBFA7D04FF1226467B0027
:100C60007A00792C121773E52424E6B408004003B7
:100C7000020E4A900C8175F003A4C58325F0C5834C
:100C800073020C99020D07020D18020D3A020D298C
:100C9000020E4A020D4B020D86E52624DF601A146F
:100CA000601C2402701B7B007A00792C900013E0FA
:100CB000F53AAD251211F88008121BF280031220BC
:100CC0009AE5327017AF31FEFC7D0A120FDFED4C52
:100CD000700A752421F533F535020E4A900018E0AC
:100CE0007003020E4A900014E065306003020E4A61
:100CF000A3E065316003020E4A752420F5337F1EA0
:100D0000FE1225FF020E4A7B017A007900852B3AFC
:100D1000AD27121EE8020E4A7B017A007907852B67
:100D20003AAD281218AC020E4A7B017A0079198577
:100D30002B3AAD29121DF9020E4A7B017A0079196E
:100D4000852B3AAD2A121AE9020E4AE4FF122970E5
:100D5000122AF8E4F533900018E07003020E4A906E
:100D60000016E065306003020E4AA3E065316003BF
:100D7000020E4A122AE775241A7533977F1E7E00E9
:100D8000122714020E4AAF357E00C3EF9414EE947E
:100D9000005018EF70057F1E1225FF7B007A007946
:100DA0002C900013E0F53A7D2C804CAF357E00C3CB
:100DB000EF9428EE9400501AEF641470057F1E1211
:100DC00025FF7B007A00792C900013E0F53A7D2D09
:100DD0008025AF357E00C3EF943CEE9400501FEFAA
:100DE000642870057F1E1225FF7B007A00792C9005
:100DF0000013E0F53A7D2E1211F80535804CAF3521
:100E00007E00C3EF9450EE94005011EF643C7005E7
:100E10007F1E1225FF12209A0535802EAF357E00E9
:100E2000C3EF9464EE94005011EF645070057F1E80
:100E30001225FF121BF2053580107F1E7E00122541
:100E4000FF75241AE4F535753397752B5A12214135
:100E50007F647E00122A5B02093A022A2EE709F615
:100E600008DFFA8046E709F208DFFA803E88828CC4
:100E700083E709F0A3DFFA8032E309F608DFFA809E
:100E800078E309F208DFFA807088828C83E309F046
:100E9000A3DFFA806489828A83E0A3F608DFFA8000
:100EA0005889828A83E0A3F208DFFA804C80D280DE
:100EB000FA80C680D4806980F28033801080A6805A
:100EC000EA809A80A880DA80E280CA803389828AA8
:100ED00083ECFAE493A3C8C582C8CCC583CCF0A345
:100EE000C8C582C8CCC583CCDFE9DEE7800D898226
:100EF0008A83E493A3F608DFF9ECFAA9F0EDFB226C
:100F000089828A83ECFAE0A3C8C582C8CCC583CCA9
:100F1000F0A3C8C582C8CCC583CCDFEADEE880DB9D
:100F200089828A83E493A3F208DFF980CC88F0EF0A
:100F300060010E4E60C388F0ED2402B4040050B985
:100F4000F582EB2402B4040050AF232345822390A2
:100F50000EAD73BB010689828A83E0225002E7222C
:100F6000BBFE02E32289828A83E49322BB010CE563
:100F70008229F582E5833AF583E0225006E925824D
:100F8000F8E622BBFE06E92582F8E222E58229F591
:100F900082E5833AF583E49322BB010689828A8342
:100FA000F0225002F722BBFE01F322F8BB010DE54F
:100FB0008229F582E5833AF583E8F0225006E92597
:100FC00082C8F622BBFE05E92582C8F222EF8DF029
:100FD000A4A8F0CF8CF0A428CE8DF0A42EFE22BCC5
:100FE000000BBE0029EF8DF084FFADF022E4CCF8B9
:100FF00075F008EF2FFFEE33FEEC33FCEE9DEC981E
:101000004005FCEE9DFE0FD5F0E9E4CEFD22EDF8A3
:10101000F5F0EE8420D21CFEADF075F008EF2FFF46
:10102000ED33FD4007985006D5F0F222C398FD0F2E
:10103000D5F0EA22BB010A89828A83F0E5F0A3F0A9
:10104000225006F709A7F01922BBFE06F3E5F009C6
:10105000F31922CFF4CFCEF4CECDF4CDCCF4CC2204
:10106000EB9FF5F0EA9E42F0E99D42F0EC6480C807
:1010700064809845F022EB9FF5F0EA9E42F0E99DEE
:1010800042F0E89C45F022E8600FECC313FCED133E
:10109000FDEE13FEEF13FFD8F122E86010ECA2E79B
:1010A00013FCED13FDEE13FEEF13FFD8F022E86002
:1010B0000FEFC333FFEE33FEED33FDEC33FCD8F11D
:1010C00022E493FC740193FD740293FE740393FF76
:1010D00022E493F8740193F9740293FA740393FB76
:1010E00022ECF0A3EDF0A3EEF0A3EFF022A88285AE
:1010F00083F0D083D0821211041211041211041251
:101100001104E473E493A3C583C5F0C583C8C58205
:10111000C8F0A3C583C5F0C583C8C582C822A4256D
:1011200082F582E5F03583F5832275F0087582003B
:10113000EF2FFFEE33FECD33CDCC33CCC58233C59C
:10114000829BED9AEC99E58298400CF582EE9BFE2D
:10115000ED9AFDEC99FC0FD5F0D6E4CEFBE4CDFA88
:10116000E4CCF9A88222B800C1B90059BA002DEC2C
:101170008BF084CFCECDFCE5F0CBF97818EF2FFFC4
:10118000EE33FEED33FDEC33FCEB33FB10D703996C
:101190004004EB99FB0FD8E5E4F9FA227818EF2F19
:1011A000FFEE33FEED33FDEC33FCC933C910D70538
:1011B0009BE99A4007EC9BFCE99AF90FD8E0E4C957
:1011C000FAE4CCFB2275F010EF2FFFEE33FEED3387
:1011D000FDCC33CCC833C810D7079BEC9AE89940B4
:1011E0000AED9BFDEC9AFCE899F80FD5F0DAE4CD16
:1011F000FBE4CCFAE4C8F9228B368A3789388D397A
:10120000E4F53BF53C78217C007D017BFF7A2D796C
:101210004DFE7F05120F2DE5384537453670030228
:101220001463E53924D570030212E6147003021327
:101230003E14700302138B1470030214182404600C
:1012400003021463AB36E5382404F9E43537FA12A7
:101250000F5375F06484E5F0120F99AB36E538242E
:1012600005F9E43537FA120F5375F06484E5F0128E
:101270000F99AB36AA37A938900004120F6C75F09D
:101280000A84FD7B01E4FF122885AB36AA37A93812
:10129000900004120F6C75F00A84ADF07B017F01A1
:1012A000122885AB36AA37A938900005120F6C7545
:1012B000F00A84FD7B017F02122885AB36AA37A98C
:1012C00038900005120F6C75F00A84ADF07B017F39
:1012D00003122885AB36AA37A938900006120F6C86
:1012E000FFAD3A021623AB36E5382406F9E435376C
:1012F000FA120F5375F06484E5F0120F997B017DAB
:1013000026E4FF122885AB36AA37A93890000612CA
:101310000F6C75F00A84FD7B017F01122885AB36C6
:10132000AA37A938900006120F6C75F00A84ADF048
:101330007B017F021228857B017D2602145EAB367D
:10134000AA37A938120F5375F06484E5F0120F998B
:101350007B017D02E4FF1228857B01E4FD7F011201
:101360002885AB36AA37A938120F5375F00A84FDC9
:101370007B017F02122885AB36AA37A938120F539A
:1013800075F00A84ADF07B0102145EAB36E53824BB
:1013900002F9E43537FA120F5375F06484E5F01260
:1013A0000F99AB36E5382403F9E43537FA120F53B9
:1013B00075F06484E5F0120F99AB36AA37A938901E
:1013C0000002120F6C75F00A84FD7B01E4FF122805
:1013D00085AB36AA37A938900002120F6C75F00A57
:1013E00084ADF07B017F01122885AB36AA37A9387E
:1013F000900003120F6C75F00A84FD7B017F0212CE
:101400002885AB36AA37A938900003120F6C75F007
:101410000A84ADF07B018046AB36E5382401F9E45F
:101420003537FA120F5375F06484E5F0120F997B8B
:10143000017D26E4FF1228857B017D257F0112288E
:1014400085AB36AA37A938900001120F6C75F00AE7
:1014500084ADF07B017F021228857B017D257F030F
:10146000122885228B368A378938E4F539F53A789F
:10147000217C007D017BFF7A2D79C7FE7F07120F4B
:101480002DAB36AA37A938120F53FFD3946374805B
:10149000948040047F638000900021EFF090000171
:1014A000120F6CFF7E00D394077480948040047FF9
:1014B00007801CC3EF9401EE6480948050047F0188
:1014C000800DAB36AA37A938900001120F6CFF903F
:1014D0000022EFF0AB36AA37A938900002120F6C49
:1014E000FF7E00D3940C7480948040047F0C801C99
:1014F000C3EF9401EE6480948050047F01800DABB3
:1015000036AA37A938900002120F6CFF900023EF23
:10151000F0AB36AA37A938900003120F6CFF7E009B
:10152000D3941F7480948040047F1F801CC3EF9469
:1015300001EE6480948050047F01800DAB36AA37A1
:10154000A938900003120F6CFF900024EFF0AB3627
:10155000AA37A938900004120F6CFFD39417748037
:10156000948040067E177F178000900025EFF09052
:101570000005120F6CFFD3943B7480948040067E6C
:101580003B7F3B8000900026EFF0AB36AA37A938AE
:10159000900006120F6CFFD3943B74809480400639
:1015A0007E3B7F3B8000900027EFF0E4F539C3E5F8
:1015B00039940774809480503E74212539F582E473
:1015C0003400F583E0FF75F00A84F53A742125397B
:1015D000F582E43400F583EF75F00A84E5F0F0E578
:1015E0003AC454F0FF74212539F582E43400F583C0
:1015F000E02FF0053980B7E4F539C3E53994077475
:10160000809480501DE539902DC093FD74212539BB
:10161000F582E43400F583E0FB7FD012285D0539C4
:1016200080D8228F3DE4F53EF53FED24FE6077142F
:1016300070030216C214700302170324036003022E
:101640001741AF3D7E007C007D05120FDF8D3FC34B
:10165000E53F9404E49400502DE4F53EC3E53E9448
:1016600004E494004003021772E53E953F5007756D
:1016700047017B018005754701E4FB7D80AF3E1289
:1016800022EB053E80D6E4F53EC3E53E9404E494A7
:10169000004003021772754701E4FB7D80AF3E12E4
:1016A00022EB053E80E3753E01E53D540170077570
:1016B00047017B018005754701E4FB7D80AF3E0259
:1016C00022EBE53D5401F53FE4F53EAF3E7E00C31D
:1016D000EF9404EE94004003021772C3EF9402EEFD
:1016E00094005009754701AB3F7D80800FE53F7B3B
:1016F0000070027B017547017D80AF3E1222EB0531
:101700003E80C8E53D5401F53FE4F53EAF3E7E0026
:10171000C3EF9404EE940050597C007D03120FDF58
:10172000ED4C7007754701AB3F800BE53F7B0070C8
:10173000027B017547017D80AF3E1222EB053E80A2
:10174000CBE4F53EAF3E7E00C3EF9404EE94005030
:1017500021E53D5403B5070AE47547017B017D800F
:101760008009754701E4FB7D80AF3E1222EB053E08
:1017700080D2228B368A37893878397C007D007B8D
:10178000FF7A2D79CE7E007F07120F2DE4F540C33E
:10179000E5409407748094805039E540902DC093C3
:1017A000FD7FD012279074392540F8A6077439259B
:1017B00040F8E6FFC4540FFE74392540F8EF540F8B
:1017C000F6EE75F00AA4FF74392540F8EF26F60509
:1017D0004080BCD3E539946374809480AF39400273
:1017E0007F63AB36AA37A938EF120F99AF3A7E0064
:1017F000D3EF94077480948040047F07800FC3EF79
:101800009401EE64809480AF3A50027F01AB36AA17
:1018100037A938900001EF120FABAF3B7E00D3EF3A
:10182000940C7480948040047F0C800FC3EF94016B
:10183000EE64809480AF3B50027F01900002EF1273
:101840000FABAF3C7E00D3EF941F748094804004B4
:101850007F1F800FC3EF9401EE64809480AF3C50F3
:10186000027F01900003EF120FABD3E53D94177494
:10187000809480AF3D40027F17900004EF120FABC1
:10188000D3E53E943B74809480AF3E40027F3B9012
:101890000005EF120FABD3E53F943B74809480AF0B
:1018A0003F40027F3B900006EF020FAB8B368A373A
:1018B00089388D39E4F53BF53C78217C007D017B4E
:1018C000FF7A2D7957FE7F05120F2DE538453745F4
:1018D0003670030219CEE53924B5700302196A1473
:1018E000603414605B2403600302199AAB36AA3794
:1018F000A938120F53F53C7B007A00793C7541639F
:10190000E4F542AD3A122289AB36AA37A938E53C54
:10191000120F9902199AAB36AA37A9389000021211
:101920000F6CF53C7B007A00793C75410C754201E7
:10193000AD3A122289AB36AA37A9389000028055F9
:10194000AB36AA37A938900003120F6CF53C7B0028
:101950007A00793C75411F754201AD3A122289AB7C
:1019600036AA37A938900003802B753B01AB36AA05
:1019700037A938900001120F6CF53C7B007A007992
:101980003C754107754201AD3A122289AB36AA3740
:10199000A938900001E53C120FAB74B62539F53932
:1019A0009000217412F0E53904A3F0E53C75F00ACB
:1019B00084A3F0E53C75F00A84A3E5F0F07B017A9E
:1019C000007921754104754201E4FF1224A422C06C
:1019D000E0C0D075D000C007758B88758D96C28F1A
:1019E000E50F6003021AD020910A0509E509704D40
:1019F00005088049D3E5099498E5089408400CE56A
:101A00000E7FDE60027FE08F0F802CD3E50994E823
:101A1000E5089403400CE50E7FAB60027FCD8F0F8D
:101A20008015D3E509940AE5089400400AE50E7F85
:101A3000AA60027FCC8F0F75080075090020900AFC
:101A4000050BE50B7038050A8034D3E50B9498E557
:101A50000A94084005750FDF801ED3E50B94E8E576
:101A60000A94034005750FBC800ED3E50B940AE57C
:101A70000A94004003750FBB750A00750B0020B770
:101A80000A050DE50D705B050C8057D3E50D9498A4
:101A9000E50C9408400CE50E7FE060027FDE8F0FBE
:101AA000803AD3E50D94E8E50C9403400CE50E7FF5
:101AB000CD60027FAB8F0F8023D3E50D940AE50C38
:101AC00094004018E50E7FCC60027FAA8F0F800C37
:101AD000750800750900750A00750B00750C007516
:101AE0000D00D007D0D0D0E0328B368A3789388DC0
:101AF00039E4F53BF53C78217C007D017BFF7A2DB4
:101B00007961FE7F05120F2DE538453745367003A4
:101B1000021BF1E5392495602114604314605114CF
:101B2000607324046003021BBD900003122270AB9B
:101B300036AA37A938900003807EAB36AA37A93879
:101B4000900004120F6CF53C7B007A00793C7541E3
:101B50003B122284AB36AA37A938900004805990F2
:101B60000005122270AB36AA37A9389000058048CC
:101B7000AB36AA37A938900006120F6CF53C7B00F3
:101B80007A00793C75413B122284AB36AA37A938DA
:101B90009000068023AB36AA37A938900007120FB1
:101BA0006CF53C7B007A00793C754101122284ABD4
:101BB00036AA37A938900007E53C120FAB7496257A
:101BC00039F539900021740AF0E53904A3F0E53CB9
:101BD00075F00A84A3F0E53C75F00A84A3E5F0F003
:101BE0007B017A007921754104754201E4FF1224DA
:101BF000A422E4900021F0A3F0A3F0A3F0A3F0A3AB
:101C0000F0753901753A00753B23753C01753D004F
:101C1000753E257B017A007921121FD6EF60030201
:101C20001CF6900021E0605FC3900026E0940590D0
:101C30000025E094004010900024E02401FF900073
:101C400023E03400FE8008900023E0FEA3E0FF9034
:101C50000022EFF075F06484E5F0F07B017D25E46F
:101C6000FF122885900022E075F00A84FD7B017F39
:101C700001122885900022E075F00A84ADF07B0106
:101C80007F021228858066900023E0FEA3E0FF7C9F
:101C9000007D64120FDFAF05900022EFF075F00AAF
:101CA00084FD7B01E4FF122885900022E075F00A94
:101CB00084ADF07B017F01122885900025E0FEA312
:101CC000E0FF7C007D0A120FDF7B017F0212288576
:101CD000122B9CEF600B7547017B017D807F02809A
:101CE000097547017B017D807F011222EB7B017D1D
:101CF000147F0312288522753901753A00753B114E
:101D00007B017A0079198B368A3789387F01E94A55
:101D10004B7003021DF8E53B453A45397003021D3F
:101D2000F8E5368537838538826539700AE53B6585
:101D3000827004E53A65837003021DF8AB39AA3A54
:101D4000A93B120F53AB36AA37A938120F99AB39FA
:101D5000AA3AA93B900001120F6CAB36AA37A938FA
:101D6000900001120FABAB39AA3AA93B90000212C6
:101D70000F6CAB36AA37A938900002120FABAB3903
:101D8000AA3AA93B900007120F6CAB36AA37A938C4
:101D9000900007120FABAB39AA3AA93B900003128F
:101DA0000F6CAB36AA37A938900003120FABAB39D2
:101DB000AA3AA93B900004120F6CAB36AA37A93897
:101DC000900004120FABAB39AA3AA93B9000051260
:101DD0000F6CAB36AA37A938900005120FABAB39A0
:101DE000AA3AA93B900006120F6CAB36AA37A93865
:101DF000900006120FABE4FF228B368A3789388DAC
:101E000039E4F53BF53C78217C007D017BFF7A2DA0
:101E1000795CFE7F05120F2DE53845374536700396
:101E2000021EE7E53924AF603314605A24026003D0
:101E3000021EB3AB36AA37A938120F53F53C7B000C
:101E40007A00793C75410C754201AD3A122289AB9A
:101E500036AA37A938E53C120F998057AB36AA3716
:101E6000A938900001120F6CF53C7B007A00793C98
:101E7000754101E4F542AD3A122289AB36AA37A981
:101E8000389000018028AB36AA37A938900002129A
:101E90000F6CF53C7B007A00793C754104E4F54217
:101EA000AD3A122289AB36AA37A938900002E53C38
:101EB000120FAB74B02539F5399000217416F0E596
:101EC0003904A3F0E53C75F00A84A3F0E53C75F015
:101ED0000A84A3E5F0F07B017A007921754104754D
:101EE0004201E4FF1224A4228B368A3789388D39C7
:101EF000E4F53B78217C007D017BFF7A2D7952FE51
:101F00007F05120F2DE538453745367003021FD582
:101F1000E53924C5603414605B24026003021FA10C
:101F2000AB36AA37A938900004120F6CF53B7B0042
:101F30007A00793B754117E4F542AD3A122289AB3C
:101F400036AA37A9389000048052AB36AA37A93890
:101F5000900005120F6CF53B7B007A00793B7541D0
:101F60003BE4F542AD3A122289AB36AA37A9389044
:101F700000058028AB36AA37A938900006120F6CEE
:101F8000F53B7B007A00793B75413BE4F542AD3A85
:101F9000122289AB36AA37A938900006E53B120F0A
:101FA000AB74C62539F539900021740CF0E539047D
:101FB000A3F0E53B75F00A84A3F0E53B75F00A84D5
:101FC000A3E5F0F07B017A007921754104754201A7
:101FD000E4FF1224A4228B368A378938E490002744
:101FE000F0A3F0A3F0A3F0754201754300754429F6
:101FF0007B017A00792A12255FEF60037F0122902E
:10200000002AE0FDFB7009900029E070037F0122A7
:10201000EBFE900029E0FBEBFF900027EEF0A3EF32
:10202000F0ED30E72AAB36AA37A9387401120F99C0
:10203000900027E0FEA3E0F4FFEEF4900027F0A369
:10204000EFF0E004F07006900027E004F0800AABA7
:1020500036AA37A938E4120F99900027E0C4F85443
:10206000F0C8A3E0C4540F48FFAB39AA3AA93BE437
:102070008FF01210347E00900028E0540FFF7C0295
:102080007D71120FCD0C7DE8120FDFAB3CAA3DA98C
:102090003EEE8FF01210347F00227B007A00792C04
:1020A0008B368A378938E4900021F078227C007DD5
:1020B000017BFF7A2D7966FE7F03120F2DE53845EF
:1020C000374536607B753C01753D00753E22AB3669
:1020D000AA37A93812001EEF7066900022E075F052
:1020E0000A84FD7B01E4FF122885900022E075F050
:1020F0000A84ADF07B017F01122885900024E075F1
:10210000F00A84FD7B017F02122885900024E0758F
:10211000F00A84ADF07B017F03122885E490002152
:10212000F0900021E0FFC39404E49400501275473E
:10213000017B017D801222EB900021E004F080E120
:1021400022E4FCECC39404E4940040030221E3EC99
:1021500025E0245EF8E6FE08E6FF4E604BEC25E045
:102160002448F8E6FA08E6C39FEA9E500FEC25E003
:102170002448F80806E6187043068040EC25E02461
:1021800048F8E4F608F6EC25E02450F8E6FE08E608
:102190004E7E0060047F0080027F01EC25E0245029
:1021A000F8A60608A6078014EC25E02448F8E4F613
:1021B00008F6EC25E02450F8E4F608F6EC25E024D7
:1021C00050F8E6FE08E64E600AEC04FF902DBFE4EE
:1021D000938008EC04FF74592CF8E6FD122AD40C05
:1021E00002214322787FE4F6D8FD75816602222B16
:1021F00002086CE493A3F8E493A34003F68001F291
:1022000008DFF48029E493A3F85407240CC8C333EF
:10221000C4540F4420C8834004F456800146F6DFBE
:10222000E4800B01020408102040809026D1E47E57
:10223000019360BCA3FF543F30E509541FFEE493B3
:10224000A360010ECF54C025E060A840B8E493A37A
:10225000FAE493A3F8E493A3C8C582C8CAC583CAA5
:10226000F0A3C8C582C8CAC583CADFE9DEE780BE5D
:10227000AB36AA37A938120F6CF53C7B007A00798F
:102280003C754117E4F542AD3A8B3D8A3E893F8D5E
:1022900040E540645B6005ED645C704EAB3DAA3E7A
:1022A000A93F120F53FFE540645B70180FE541FD35
:1022B000EFFB3395E0FAD3EB9D7480F86A984020E9
:1022C000AF42801CE540645C70161FE542FDEFFBE9
:1022D0003395E0FAC3EB9D7480F86A985002AF41E1
:1022E000AB3DAA3EA93FEF120F99228D458B46AC1C
:1022F00007ECC39404E4940040037F0122E4FAEA6B
:10230000C39408748094805054E547601C7E007428
:1023100001A802088005C333CE33CED8F9FFE545C6
:10232000F582EF55826033801A7E007401A802089E
:102330008005C333CE33CED8F9FFE545F582EF559E
:10234000826008AF04AD02AB46800CAF04AD02E57D
:10235000467B0070027B011223600A80A27F00226C
:10236000EFC39404E49400506AEDC394087480941D
:10237000805060E5666011EFF582C374039582F5C5
:1023800082E49400F5838006EFF582758300AF82C6
:10239000E5666008ED902D9193FE8002AE05AD06D6
:1023A000EB601674592FF8C000E6FFA80574010809
:1023B0008002C333D8FC4F801774592FF8C000E651
:1023C000FFAE05A8067401088002C333D8FCF45F91
:1023D000D000F6228B398A3A893B8C3C8D3DE94A04
:1023E0004B600BD3E53D9400E53C940050037F0126
:1023F000227F647E00122AC1E4FFFE122AADAF3DA7
:102400001227537F647E00122AC1E4F53EF53FC3D4
:10241000E53F953DE53E953C5026E53F2405FFE42C
:10242000353EFEAB39AA3AA93B853F82853E8312F1
:102430000F6CFD1228B9053FE53F70D3053E80CFF4
:102440007F00228F3ED3EF94007480948050037FEE
:1024500001227F647E00122AC1E4FDFCAF05AE04B8
:10246000122A4574D52DF582742D3CF583E4936FC3
:1024700060037F0122E53E2405FFE433CF2DCF3CEE
:10248000FE122A4574D52DF582742D3CF583E49314
:102490006F60037F01220DBD00010CED64054C70DF
:1024A000BB7F00228F3D8B3E8A3F8940E4F543C3CA
:1024B000EF9404E494005018E53D2541FFE433FE19
:1024C000D3EF9404EE648094805005E94A4B700386
:1024D0007F0122853D43E543C395415022C3E54337
:1024E000953DFFE49400AB3EAA3FA9408F82F5835F
:1024F000120F6CFDAB42AF43122885054380D77F96
:1025000000228B398A3A893B8C3C8D3DE94A4B60ED
:102510000BD3E53D9400E53C940050037F0122AFCE
:102520003D122443EF60037F01227F647E00122A64
:10253000C1E4FDFCC3ED953DEC953C501FED240539
:10254000FFE43CFE122A45AB39AA3AA93B8D828CA6
:1025500083EF120FAB0DBD00010C80D87F00228BE2
:102560003F8A408941E51070181229C9EF60037F46
:1025700001227FCC1229E47F441229E475100180E6
:102580002D30B62A1229C97FCC1229E47FBE122928
:10259000E4122A16AB42AA43A944EF120F99122A59
:1025A00016AB3FAA40A941EF120F99E4F5107F0046
:1025B000228B368A378938E94A4B60427405120FFC
:1025C00099AB36AA37A938900001E4120FAB9000FE
:1025D000027404120FAB9000077401120FAB90004D
:1025E000037416120FAB900004741E120FAB900010
:1025F000057407120FAB900006741E120FAB228EEB
:10260000368F37E4F538F539F538C3E5389404E406
:1026100094005031E4F539C3E5399408748094800E
:10262000501FC374039538FFC374079539FDE4FB4D
:10263000122360122141AF37AE36122A5B05398072
:10264000D6053880C5228D36AE078B828A83EEC3CD
:102650009404E494005009E5369404E494004003A3
:102660007F0122EE2536F536D39404E49400AF368C
:1026700040027F048F36A906E9C39536500CAF019E
:10268000AD82AC831228320980EE7F0022C2D5E8E9
:1026900030E70FB2D5E4C39BFBE49AFAE499F9E47E
:1026A00098F8EC30E717B2D51226C3121166E4C3CE
:1026B0009BFBE49AFAE499F9E498F8800312116616
:1026C00030D50DE4C39FFFE49EFEE49DFDE49CFC39
:1026D00022016600045900000000085E00000000AE
:1026E00000000000015800015DFF084800000000E4
:1026F0000000000008500000000000000000010F72
:1027000000010E0002080000020A0000020C000096
:10271000011000008E368F37E4F538F539F538C3EF
:10272000E5389404E494005029E4F539C3E539947C
:10273000087480948050177B01AD39AF3812236044
:10274000122141AF37AE36122A5B053980DE0538DB
:1027500080CD228F40D3EF94007480948050037F0B
:1027600001227F647E00122AC1E4FBFAAF03AE02AD
:102770001228ACE5402405FFE433CF2BCF3AFE12FC
:1027800028AC0BBB00010AEB64054A70DF7F002216
:10279000AC07AB05122A85EF60037F0122AF04125C
:1027A000298F122809EF6006122B6C7F0122122854
:1027B00004122A85EC04FF12298F122809122931EC
:1027C000AE07122B88122B6CAF06227B017A0079A0
:1027D000118B368A378938E94A4B6027120F53FF2D
:1027E000122951AB36AA37A938900001120F6CFF9D
:1027F000122B58AB36AA37A938900001120F6CFF84
:10280000122B6222AF0312298FE4FEC2B3D2B4129C
:102810002B1C30B415AF060EEFD394C8748094808F
:1028200040F0C2B3122B217F0122C2B3122B217FB1
:102830000022EFC39404E4940040037F0122E56684
:102840006009EFFBC374039BFB8002EFFBAF03EF58
:1028500025E0245EF8A60408A6057F0022AE07AC9A
:1028600003AB05122A85EF60037F0122AF06122910
:102870008F122809122804AF0412298F1228091276
:102880002B6C7F0022AE05EFC39404E49400500A41
:10289000EEC394277480948040037F0122EE902D34
:1028A0009993FDE4F5471222EB7F002274D52BF5B6
:1028B00082742D3AF583E493FD75C78175C5028F47
:1028C000C48EC38DC275C65A75C6A500022B29E4F5
:1028D000FD7F09122AD47D0C7F0A122AD47D037F42
:1028E0000B122AD47D017F0C122AD41D7F0F022ADD
:1028F000D47E08EEC39401748094804013C292EF9A
:10290000C330E701D39294EF25E0FFD2921E80E31B
:1029100022E50FFDC394AA74809480400ED3ED94F9
:10292000E0748094805004AF0F8002E4FFE4F50F60
:10293000227E08E4FDD2B4AF061EEF600FED25E065
:10294000FD122B1A30B4F043050180EBC2B3AF0582
:1029500022AD07E55D6D60178D5DEDD3940F74803A
:102960009480AF0540027F0FAD077F0A122AD42260
:10297000E4FEEEC39404E49400501374592EF8A6B8
:1029800007EE25E0245EF8E4F608F60E80E422AEB9
:10299000077D08AF051DEF6012C2B3122BA2EE3304
:1029A00092B4EE25E0FE122B1C80E8C2B3227B011C
:1029B0007A0079118B368A3789387F01E94A4B6072
:1029C000077D087C001223D422D2B6C2B6122B7621
:1029D000D2B6122B367F0030B6027F01AD07122B24
:1029E00076AF0522AD077C01EC60125D6004D20079
:1029F0008002C200122B09EC25E0FC80EB22438E02
:102A00004053890F438910758B88758D96C28FD27C
:102A1000ABD2AFD28E22E4FDFC0DED600E122A99EE
:102A20005003ED4204ED25E0FD80EFAF04227F1E50
:102A30007E001227147F1E7E001225FF7FE87E0392
:102A4000122A5B80E975C78175C5018FC48EC37575
:102A5000C65A75C6A500AFC2022B29EF1FAA067081
:102A6000011E4A600A7D207C28DCFEDDFC80EC2211
:102A70008B368A3789387F01E94A4B60077D087CAD
:102A80000012250222D2B4D2B3122B21C2B4122BCF
:102A900021C2B3122B217F0022C2B6122B96D2B6CE
:102AA000122B90A2B69200122B4DA2002275C78164
:102AB00075C5038FC48EC375C65A75C6A500022B93
:102AC00029EF1FAA0670011E4A60087D051DED60F2
:102AD000F080FA22E4F53AC293001228F100AF0523
:102AE0001228F100D29322E5586401600A7D017F2B
:102AF0000C122AD475580122E5586402600AE4FDDC
:102B00007F0C122AD475580222C2B6122B96A2004C
:102B100092B6122B4DD2B6022B90C2B3122B21D2F9
:102B2000B30000007F0ADFFE22E4F5C7F5C5F5C655
:102B300075C380F5C422E400007F037E7BDEFEDFE8
:102B4000FC22D2B4D2B37F0A7E00022A5BE4007F6B
:102B5000027EDCDEFEDFFC22EF7F0060027F018F61
:102B60006622EF7F0060027F018F0E22C2B4122B1B
:102B70001CD2B4022B21E47F107E93DEFEDFFC2208
:102B8000E4F50FF50E0229FED2B4122B1AC2B322BD
:102B9000E47F0EDFFE22E47F4EDFFE22AF662202DC
:102BA0002B42000022000C9645004D4AB8000D4A09
:102BB0004C000DA5410025AAB600056A49007AAD72
:102BC000BD00025D5200092D47005C95BA000A95D0
:102BD0004E000B4A43004B5537000AD54A00955A20
:102BE000BF0004BA53000A5B4800652BBC00052BEC
:102BF00050000A934500474AB90006AA4C000AD57E
:102C0000410024DAB60004B64A0069573D000A4E76
:102C100051000D2646005E933A000D534D0005AA63
:102C2000430036B53700096D4B00B4AEBF0004ADAC
:102C300053000A4D48006D25BC000D254F000D5274
:102C400044005DAA38000B5A4C00056D410024ADCC
:102C5000B600049B4A007A4BBE000A4B51000AA5FD
:102C600046005B52BA0006D24E000ADA4200355BDB
:102C7000370009374B008497C10004975300064B77
:102C8000480066A53C000EA54F0006B244004AB6B7
:102C900038000AAE4C00092E42003C9735000C96D5
:102CA00049007D4ABD000D4A51000DA5450055AAB9
:102CB000BA00056A4E000A6D4300452EB700052D87
:102CC0004B008A95BF000A9553000B4A47006B558D
:102CD0003B000AD54F00055A45004A5D38000A5BA3
:102CE0004C00052B42003A93B60006934900772921
:102CF000BD0006AA51000AD5460054DABA0004B64F
:102D00004E000A574300452738000D264A008E938F
:102D10003E000D5252000DAA470066B53B00056DFE
:102D20004F0004AE45004A4EB9000A4D4C000D1547
:102D300041002D92B50000001F003B005A007800B2
:102D40009700B500D400F301110130014E000000DE
:102D50000000000000000000000000000000000073
:102D60000000000000000000000000000000000063
:102D70000000000000000000000000000000000053
:102D80000000000000000000000000000000000043
:102D90000000040506010203077E306D79335B5F96
:102DA000707F7B771F4E3D4F475E7837170D0E675C
:102DB0001D42600C183107804020100804020100F9
:102DC00006030504020100000000000000000000EE
:0B2DD0000000000000574E4156590063
:00000001FF
