:1000000002228F122A56122C6D7F0C122AD8E4FF7E
:10001000122CDEE4FF122AF702215F0219ED8B3960
:100020008A3A893B90002512110B000000009000D5
:100030002912110B0000000090002D12110B00007E
:10004000000090003112110B0000000090003512EA
:10005000110B0000000090003912110B000000008D
:1000600090003D12110B0000000090004112110B96
:100070000000000090004512110B00000000E94A4A
:100080004B6008E53E453D453C70037F0122AB399E
:10009000AA3AA93B120F71FFD394637480948040F5
:1000A000047F638000E4FCFDFE9000251210FF90A9
:1000B0000002120F8AFF7E00D3940C74809480405B
:1000C000047F0C801CC3EF9401EE64809480500484
:1000D0007F01800DAB39AA3AA93B900002120F8A2A
:1000E000FFE4FCFDFE9000291210FFAB39AA3AA9EB
:1000F0003B900003120F8AFF7E00D3941F748094FC
:100100008040047F1F801CC3EF9401EE64809480C4
:1001100050047F01800DAB39AA3AA93B900003122D
:100120000F8AFFE4FCFDFE90002D1210FF900025C9
:10013000A3A3E0FEA3E0902D2B75F00412113CEE7A
:1001400025E025E02583F5831210DFEF5460FFE4FE
:10015000FEFDFC78051210A5E47B01FAF9F8C31244
:1001600010949000257030A3A3E0FEA3E0902D2B07
:1001700075F00412113CEE25E025E02583F583128D
:1001800010DFEF541FFFEF24FFFFE434FFFEE434E1
:10019000FFFDE434FF802BA3A3E0FEA3E0902D2B12
:1001A00075F00412113CEE25E025E02583F583125D
:1001B00010DFEF541FFFEF241EFFE433FEE433FD96
:1001C000E433FC9000311210FF900029A3A3E0FE5D
:1001D000A3E0902EB975F00212113CEE25E02583C4
:1001E000F583E493FE740193FFE4FCFD90002DE0A1
:1001F000F8A3E0F9A3E0FAA3E02FFFEA3EFEED3911
:10020000FDEC38FCEF24FFFFEE34FFFEED34FFFD84
:10021000EC34FFFC9000351210FFE47B04FAF9F88F
:10022000900025E0FCA3E0FDA3E0FEA3E0FF122880
:1002300031AC00AD01AE02AF03EC4D4E4F703E7FCE
:1002400002FEFDFC900029E0F8A3E0F9A3E0FAA388
:10025000E0FBD312107E4025900035E0FCA3E0FDCA
:10026000A3E0FEA3E0FFE4FAF9F8EF2401FFEA3E81
:10027000FEE93DFDE83CFC9000351210FF90003196
:10028000E0FCA3E0FDA3E0FEA3E0FFA3E0F8A3E011
:10029000F9A3E0FAA3E0FBC312107E50030204C6E8
:1002A000900035E0FCA3E0FDA3E0FEA3E0FF90009A
:1002B00031E0F8A3E0F9A3E0FAA3E0FBEF9BFFEE47
:1002C0009AFEED99FDEC98FCA31210FF9000291204
:1002D000110B0000000190003D12110B0000000105
:1002E00090004112110B0000000090003DA3A3A359
:1002F000E014F9E4FFFE7D08FCA8011210B890009C
:1003000025A3A3E0FAA3E0902D2B75F00412113C75
:10031000EA25E025E02583F5831210EFEB5FFFEA85
:100320005EFEE95DFDE85CFCE4FBFAF9F8C312103F
:1003300094900039700912110B0000001D80071203
:10034000110B0000001E900039E0FCA3E0FDA3E0CB
:10035000FEA3E0FF900035E0F8A3E0F9A3E0FAA3E4
:10036000E0FBC312107E50030204B6900035E0FC9F
:10037000A3E0FDA3E0FEA3E0FFA3E0F8A3E0F9A360
:10038000E0FAA3E0FBEF9BFFEE9AFEED99FDEC98FF
:10039000FC9000351210FF90003DE0FCA3E0FDA3AF
:1003A000E0FEA3E0FFE4FAF9F8EF2401FFEA3EFEE5
:1003B000E93DFDE83CFC90003D1210FF900025A3B4
:1003C000A3E0FEA3E0902D2B75F00412113CEE2566
:1003D000E025E02583F5831210DFE4FFFEED54F005
:1003E000FDE4FC78141210A5A804A905AA06AB0721
:1003F000900029E0FCA3E0FDA3E0FEA3E0FFC31210
:100400001094702D900041E0FCA3E0FDA3E0FEA35A
:10041000E0FF1210719000411210FF900041E0FCCB
:10042000A3E0FDA3E0FEA3E0FFEC4D4E4F7027805C
:1004300000900029E0FCA3E0FDA3E0FEA3E0FFE4C0
:10044000FAF9F8EF2401FFEA3EFEE93DFDE83CFC45
:100450009000291210FF90003DA3A3A3E014F9E43B
:10046000FFFE7D08FCA8011210B8900025A3A3E0B0
:10047000FAA3E0902D2B75F00412113CEA25E0253B
:10048000E02583F5831210EFEB5FFFEA5EFEE95D86
:10049000FDE85CFCE4FBFAF9F8C312109490003913
:1004A000700A12110B0000001D02034612110B000E
:1004B00000001E020346900035E0FCA3E0FDA3E02F
:1004C000FEA3E0020767900031E0FCA3E0FDA3E09B
:1004D000FEA3E0FFA3E0F8A3E0F9A3E0FAA3E0FBAA
:1004E000C3EF9BFFEE9AFEED99FDEC98FC90003176
:1004F0001210FF900025E0FCA3E0FDA3E0FEA3E0C6
:10050000FFEF24FFFFEE34FFFEED34FFFDEC34FF80
:10051000FC9000251210FF90002912110B00000022
:100520000C900025A3A3E0FEA3E0902D2B75F00412
:1005300012113CEE25E025E02583F5831210DFE45F
:10054000FFFEED54F0FDE4FC78141210A5E4FBFA74
:10055000F9F8C312109490003D700912110B0000BD
:10056000000C800712110B0000000D9000411211C9
:100570000B0000000090003DA3A3A3E014F9E4FFEA
:10058000FE7D08FCA8011210B8900025A3A3E0FA94
:10059000A3E0902D2B75F00412113CEA25E025E034
:1005A0002583F5831210EFEB5FFFEA5EFEE95DFD48
:1005B000E85CFCE4FBFAF9F8C3121094900039707F
:1005C0000912110B0000001D800712110B00000022
:1005D0001E900039E0FCA3E0FDA3E0FEA3E0FF9045
:1005E0000031E0F8A3E0F9A3E0FAA3E0FBD3121096
:1005F0007E500302073F900031E0FCA3E0FDA3E042
:10060000FEA3E0FF900039E0F8A3E0F9A3E0FAA32D
:10061000E0FBEF9BFFEE9AFEED99FDEC98FC90005D
:10062000311210FF90003DE0FCA3E0FDA3E0FEA32B
:10063000E0FFEF24FFFFEE34FFFEED34FFFDEC346E
:10064000FFFC90003D1210FF900041E0FCA3E0FD94
:10065000A3E0FEA3E0FFEC4D4E4F7024900029E094
:10066000FCA3E0FDA3E0FEA3E0FFEF24FFFFEE34D8
:10067000FFFEED34FFFDEC34FFFC9000291210FF6B
:10068000900025A3A3E0FEA3E0902D2B75F00412AB
:10069000113CEE25E025E02583F5831210DFE4FF11
:1006A000FEED54F0FDE4FC78141210A5A804A90591
:1006B000AA06AB07900029E0FCA3E0FDA3E0FEA39F
:1006C000E0FFC31210947017900041E0FCA3E0FD1E
:1006D000A3E0FEA3E0FF1210719000411210FF9002
:1006E000003DA3A3A3E014F9E4FFFE7D08FCA801EC
:1006F0001210B8900025A3A3E0FAA3E0902D2B756B
:10070000F00412113CEA25E025E02583F583121060
:10071000EFEB5FFFEA5EFEE95DFDE85CFCE4FBFAFF
:10072000F9F8C3121094900039700A12110B0000EE
:10073000001D0205D112110B0000001E0205D19010
:100740000031E0F8A3E0F9A3E0FAA3E0FB90003960
:10075000E0FCA3E0FDA3E0FEA3E0C39BFFEE9AFE56
:10076000ED99FDEC98FCEF2401FFE43EFEE43DFD35
:10077000E43CFC90002D1210FF900045E0F8A3E04F
:10078000F9A3E0FAA3E0FB90002DE0FCA3E0FDA3B9
:10079000E0FEA3E0FFEB4FFFEA4EFEE94DFDE84C23
:1007A000FC9000451210FF900045E0F8A3E0F9A38B
:1007B000E0FAA3E0FBC000900029E0FCA3E0FDA369
:1007C000E0FEA3E0FF78061210CCD000EB4FFFEA6A
:1007D0004EFEE94DFDE84CFC9000451210FF9000E4
:1007E00045A3A3A3E0543FFFAB3CAA3DA93E900024
:1007F00002EF120FC9900045A3A3E0FEA3E054C08E
:10080000FFEE5403FEE4FDFC78061210A5EF120F74
:10081000B7900025A3A3E0FEA3E0902D2B75F00474
:1008200012113CEE25E025E02583F5831210DFE46C
:10083000FFFEED54F0FDE4FC78141210A5A804A905
:1008400005AA06AB07900029E0FCA3E0FDA3E0FEAB
:10085000A3E0FFC3121094AB3CAA3DA93E90000157
:100860007003048001E4120FC97F0022E4F521F532
:1008700022F52375241A75252A75262075273A75C1
:10088000284A752950752A6A752B5A782C7C00FDE8
:100890007BFF7A2E79EFFE7F07120F4B78007C00EA
:1008A0007D017BFF7A2E79F67E007F07120F4B7851
:1008B000077C007D017BFF7A2E79FD7E007F071289
:1008C0000F4B780E7C007D017BFF7A2F79047E0030
:1008D0007F03120F4B78117C007D017BFF7A2F790B
:1008E000077E007F08120F4B78197C007D017BFF8B
:1008F0007A2F790F7E007F08120F4BE4F533F53421
:10090000F535122D06120003122D257B017A007990
:1009100011122BF6EF600C7B017A0079111227552A
:10092000122B351229757F1E7E001228FB7F1E7E3A
:10093000001227A3122A988F23752B5AEF700302F7
:100940000C52E4F533F534E52464207012122C6D5A
:1009500075241A753397E4F5237F1EFE1228FBE5F4
:100960002324567003020B0424EF7003020B871438
:100970007003020A3524F07003020BBF14700302E7
:100980000BFC24EF7003020C4124336003020C5271
:100990000524C3E524941F74809480400375241AB1
:1009A000E524641A700E75262075252AFBFA7D044D
:1009B000FF1227EAE524641B701775273A7B017A3A
:1009C0000079001217917B037A007D027F021227C3
:1009D000EAE524641C701775284A7B017A007907C0
:1009E0001217917B037A007D027F021227EAE52429
:1009F000641E7020752950753901753A00753B11D8
:100A00007B017A007919121D247B037A007D027F15
:100A1000021227EAE524641D6003020C52752A6A5B
:100A2000753901753A00753B117B017A007919120D
:100A30001D24020BF2E524641B703B7B017A0079D4
:100A400007121791900007E0900000F0900008E076
:100A5000900001F0900009E0900002F090000AE0A0
:100A6000900003F07B017A007900121482E4FBFA13
:100A70007D04FF1227EAE524641C70337B017A00B1
:100A80007900121791900004E090000BF09000059F
:100A9000E090000CF0900006E090000DF07B017AF1
:100AA000007907121482E4FBFA7D04FF1227EAE5BD
:100AB00024641E7012121D15122B35122975E4FBC9
:100AC000FA7D04FF1227EAE524641D700F121D153C
:100AD000122B35E4FBFA7D04FF1227EAE524641AA1
:100AE0006003020C520526C3E5269423748094808B
:100AF0004003752620E52664207003020C527534ED
:100B000001020C52AF247E00EF641A7016E52664D1
:100B10002070100525C3E525942F74809480400330
:100B200075252AEF641B4E70100527C3E527943DF9
:100B300074809480400375273AE524641C70100586
:100B400028C3E528944E74809480400375284AAFEA
:100B5000247E00EF641E70100529C3E529945374A8
:100B60008094804003752950EF641D4E6003020C91
:100B700052052AC3E52A946F748094805003020CB6
:100B800052752A6A020C52AF247E00EF641A70106C
:100B90000526C3E52694237480948040037526209F
:100BA000EF641B4E6014AF24EF641C600DEF641EF5
:100BB0006008EF641D6003020C52752B5B8033AF3D
:100BC000247E00EF641A70101526C3E52694207465
:100BD0008094805003752622EF641B4E6011AF2471
:100BE000EF641C600AEF641E6005EF641D7063759E
:100BF0002B5C7B037A007D027F028040AF247E0065
:100C0000EF641A70191526C3E52694207480948029
:100C10005003752622E52664206003753401EF64D5
:100C20001E4E702E7B017A007919122755121D1560
:100C3000122B35122975E4FBFA7D04FF1227EA8096
:100C400011E524641A700B752420F5337F1EFE1203
:100C500027A30533E5346003E4F533D3E5339496F5
:100C6000E49400400C75241A75262075252AE4F5B5
:100C700033E524641A7008FBFA7D04FF1227EA7B2F
:100C8000007A00792C121791E52424E6B40800407C
:100C900003020E6B900CA275F003A4C58325F0C56A
:100CA0008373020CBA020D28020D39020D5B020D8E
:100CB0004A020E6B020D6C020DA7E52624DF601AB6
:100CC00014601C2402701B7B007A00792C900013A6
:100CD000E0F53AAD251212168008121C108003129E
:100CE00020B8E5327017AF31FEFC7D0A120FFDED22
:100CF0004C700A752421F533F535020E6B900018FF
:100D0000E07003020E6B900014E065306003020E89
:100D10006BA3E065316003020E6B752420F5337F11
:100D20001EFE1227A3020E6B7B017A007900852B31
:100D30003AAD27121F06020E6B7B017A00790785F8
:100D40002B3AAD281218CA020E6B7B017A00791972
:100D5000852B3AAD29121E17020E6B7B017A0079A2
:100D600019852B3AAD2A121B07020E6BE4FF122ADB
:100D7000F7122C7EE4F533900018E07003020E6B3E
:100D8000900016E065306003020E6BA3E0653160F1
:100D900003020E6B122C6D75241A7533977F1E7E1D
:100DA000001228FB020E6BAF357E00C3EF9414EEE9
:100DB00094005018EF70057F1E1227A37B007A0065
:100DC000792C900013E0F53A7D2C804CAF357E00F5
:100DD000C3EF9428EE9400501AEF641470057F1E40
:100DE0001227A37B007A00792C900013E0F53A7D5E
:100DF0002D8025AF357E00C3EF943CEE9400501F4C
:100E0000EF642870057F1E1227A37B007A00792CDF
:100E1000900013E0F53A7D2E1212160535804CAF86
:100E2000357E00C3EF9450EE94005011EF643C7097
:100E3000057F1E1227A31220B80535802EAF357E00
:100E400000C3EF9464EE94005011EF645070057F7E
:100E50001E1227A3121C10053580107F1E7E001263
:100E600027A375241AE4F535753397752B5A12218B
:100E70005F7F647E00122BE1020934E709F608DF88
:100E8000FA8046E709F208DFFA803E88828C83E721
:100E900009F0A3DFFA8032E309F608DFFA8078E38D
:100EA00009F208DFFA807088828C83E309F0A3DFFF
:100EB000FA806489828A83E0A3F608DFFA80588981
:100EC000828A83E0A3F208DFFA804C80D280FA8025
:100ED000C680D4806980F28033801080A680EA804A
:100EE0009A80A880DA80E280CA803389828A83EC83
:100EF000FAE493A3C8C582C8CCC583CCF0A3C8C507
:100F000082C8CCC583CCDFE9DEE7800D89828A8385
:100F1000E493A3F608DFF9ECFAA9F0EDFB2289824D
:100F20008A83ECFAE0A3C8C582C8CCC583CCF0A301
:100F3000C8C582C8CCC583CCDFEADEE880DB898205
:100F40008A83E493A3F208DFF980CC88F0EF600194
:100F50000E4E60C388F0ED2402B4040050B9F5824F
:100F6000EB2402B4040050AF2323458223900ECB20
:100F700073BB010689828A83E0225002E722BBFE0E
:100F800002E32289828A83E49322BB010CE5822951
:100F9000F582E5833AF583E0225006E92582F8E6FA
:100FA00022BBFE06E92582F8E222E58229F582E5E8
:100FB000833AF583E49322BB010689828A83F02277
:100FC0005002F722BBFE01F322F8BB010DE5822996
:100FD000F582E5833AF583E8F0225006E92582C8D8
:100FE000F622BBFE05E92582C8F222EF8DF0A4A807
:100FF000F0CF8CF0A428CE8DF0A42EFE22BC000BE6
:10100000BE0029EF8DF084FFADF022E4CCF875F03E
:1010100008EF2FFFEE33FEEC33FCEE9DEC9840051D
:10102000FCEE9DFE0FD5F0E9E4CEFD22EDF8F5F0E3
:10103000EE8420D21CFEADF075F008EF2FFFED33EB
:10104000FD4007985006D5F0F222C398FD0FD5F069
:10105000EA22BB010A89828A83F0E5F0A3F02250DC
:1010600006F709A7F01922BBFE06F3E5F009F3190C
:1010700022CFF4CFCEF4CECDF4CDCCF4CC22EB9F66
:10108000F5F0EA9E42F0E99D42F0EC6480C864808D
:101090009845F022EB9FF5F0EA9E42F0E99D42F080
:1010A000E89C45F022E8600FECC313FCED13FDEE65
:1010B00013FEEF13FFD8F122E86010ECA2E713FC57
:1010C000ED13FDEE13FEEF13FFD8F022E8600FEFF3
:1010D000C333FFEE33FEED33FDEC33FCD8F122E4F5
:1010E00093FC740193FD740293FE740393FF22E456
:1010F00093F8740193F9740293FA740393FB22EC4E
:10110000F0A3EDF0A3EEF0A3EFF022A8828583F028
:10111000D083D08212112212112212112212112216
:10112000E473E493A3C583C5F0C583C8C582C8F042
:10113000A3C583C5F0C583C8C582C822A42582F58E
:1011400082E5F03583F5832275F008758200EF2F74
:10115000FFEE33FECD33CDCC33CCC58233C5829B7D
:10116000ED9AEC99E58298400CF582EE9BFEED9AA3
:10117000FDEC99FC0FD5F0D6E4CEFBE4CDFAE4CC3F
:10118000F9A88222B800C1B90059BA002DEC8BF041
:1011900084CFCECDFCE5F0CBF97818EF2FFFEE33FE
:1011A000FEED33FDEC33FCEB33FB10D70399400429
:1011B000EB99FB0FD8E5E4F9FA227818EF2FFFEE50
:1011C00033FEED33FDEC33FCC933C910D7059BE981
:1011D0009A4007EC9BFCE99AF90FD8E0E4C9FAE4DD
:1011E000CCFB2275F010EF2FFFEE33FEED33FDCC7C
:1011F00033CCC833C810D7079BEC9AE899400AED66
:101200009BFDEC9AFCE899F80FD5F0DAE4CDFBE40D
:10121000CCFAE4C8F9228B368A3789388D39E4F55F
:101220003BF53C78217C007D017BFF7A2E79D3FE53
:101230007F05120F4BE538453745367003021481A0
:10124000E53924D5700302130414700302135C14EF
:1012500070030213A91470030214362404600302FD
:101260001481AB36E5382404F9E43537FA120F71EE
:1012700075F06484E5F0120FB7AB36E5382405F954
:10128000E43537FA120F7175F06484E5F0120FB788
:10129000AB36AA37A938900004120F8A75F00A8479
:1012A000FD7B01E4FF122A2FAB36AA37A938900044
:1012B00004120F8A75F00A84ADF07B017F01122AB7
:1012C0002FAB36AA37A938900005120F8A75F00A9D
:1012D00084FD7B017F02122A2FAB36AA37A93890F2
:1012E0000005120F8A75F00A84ADF07B017F0312AE
:1012F0002A2FAB36AA37A938900006120F8AFFAD05
:101300003A021641AB36E5382406F9E43537FA12CD
:101310000F7175F06484E5F0120FB77B017D26E450
:10132000FF122A2FAB36AA37A938900006120F8A6F
:1013300075F00A84FD7B017F01122A2FAB36AA3794
:10134000A938900006120F8A75F00A84ADF07B016F
:101350007F02122A2F7B017D2602147CAB36AA372E
:10136000A938120F7175F06484E5F0120FB77B0194
:101370007D02E4FF122A2F7B01E4FD7F01122A2F58
:10138000AB36AA37A938120F7175F00A84FD7B01BC
:101390007F02122A2FAB36AA37A938120F7175F0C7
:1013A0000A84ADF07B0102147CAB36E5382402F9E7
:1013B000E43537FA120F7175F06484E5F0120FB757
:1013C000AB36E5382403F9E43537FA120F7175F0BE
:1013D0006484E5F0120FB7AB36AA37A93890000243
:1013E000120F8A75F00A84FD7B01E4FF122A2FABED
:1013F00036AA37A938900002120F8A75F00A84AD18
:10140000F07B017F01122A2FAB36AA37A938900052
:1014100003120F8A75F00A84FD7B017F02122A2FC6
:10142000AB36AA37A938900003120F8A75F00A84E8
:10143000ADF07B018046AB36E5382401F9E4353761
:10144000FA120F7175F06484E5F0120FB77B017D1D
:1014500026E4FF122A2F7B017D257F01122A2FAB64
:1014600036AA37A938900001120F8A75F00A84ADA8
:10147000F07B017F02122A2F7B017D257F03122A38
:101480002F228B368A378938E4F539F53A78217C72
:10149000007D017BFF7A2F794DFE7F07120F4BAB4A
:1014A00036AA37A938120F71FFD3946374809480E1
:1014B00040047F638000900021EFF0900001120F44
:1014C0008AFF7E00D394077480948040047F078055
:1014D0001CC3EF9401EE6480948050047F01800D62
:1014E000AB36AA37A938900001120F8AFF9000226C
:1014F000EFF0AB36AA37A938900002120F8AFF7EB0
:1015000000D3940C7480948040047F0C801CC3EF43
:101510009401EE6480948050047F01800DAB36AA64
:1015200037A938900002120F8AFF900023EFF0AB2A
:1015300036AA37A938900003120F8AFF7E00D39491
:101540001F7480948040047F1F801CC3EF9401EEC1
:101550006480948050047F01800DAB36AA37A9388F
:10156000900003120F8AFF900024EFF0AB36AA37E9
:10157000A938900004120F8AFFD3941774809480C6
:1015800040067E177F178000900025EFF090000541
:10159000120F8AFFD3943B7480948040067E3B7F79
:1015A0003B8000900026EFF0AB36AA37A9389000B8
:1015B00006120F8AFFD3943B7480948040067E3BD2
:1015C0007F3B8000900027EFF0E4F539C3E53994C4
:1015D0000774809480503E74212539F582E43400EC
:1015E000F583E0FF75F00A84F53A74212539F58218
:1015F000E43400F583EF75F00A84E5F0F0E53AC4D1
:1016000054F0FF74212539F582E43400F583E02F8E
:10161000F0053980B7E4F539C3E53994077480944F
:1016200080501DE539902F4693FD74212539F582B0
:10163000E43400F583E0FB7FD0122A07053980D817
:10164000228F3DE4F53EF53FED24FE6077147003F4
:101650000216E01470030217212403600302175FCF
:10166000AF3D7E007C007D05120FFD8D3FC3E53F41
:101670009404E49400502DE4F53EC3E53E9404E464
:1016800094004003021790E53E953F5007754701CF
:101690007B018005754701E4FB7D80AF3E12249FEE
:1016A000053E80D6E4F53EC3E53E9404E494004054
:1016B00003021790754701E4FB7D80AF3E12249F23
:1016C000053E80E3753E01E53D5401700775470115
:1016D0007B018005754701E4FB7D80AF3E02249FBE
:1016E000E53D5401F53FE4F53EAF3E7E00C3EF9487
:1016F00004EE94004003021790C3EF9402EE9400AE
:101700005009754701AB3F7D80800FE53F7B00703E
:10171000027B017547017D80AF3E12249F053E800C
:10172000C8E53D5401F53FE4F53EAF3E7E00C3EF12
:101730009404EE940050597C007D03120FFDED4C93
:101740007007754701AB3F800BE53F7B0070027B64
:10175000017547017D80AF3E12249F053E80CBE49A
:10176000F53EAF3E7E00C3EF9404EE94005021E5B9
:101770003D5403B5070AE47547017B017D8080096C
:10178000754701E4FB7D80AF3E12249F053E80D269
:10179000228B368A37893878397C007D007BFF7A46
:1017A0002F79547E007F07120F4BE4F540C3E540CC
:1017B0009407748094805039E540902F4693FD7FC4
:1017C000D012293A74392540F8A60774392540F813
:1017D000E6FFC4540FFE74392540F8EF540FF6EEBF
:1017E00075F00AA4FF74392540F8EF26F60540800D
:1017F000BCD3E539946374809480AF3940027F6331
:10180000AB36AA37A938EF120FB7AF3A7E00D3EF45
:1018100094077480948040047F07800FC3EF940185
:10182000EE64809480AF3A50027F01AB36AA37A9AC
:1018300038900001EF120FC9AF3B7E00D3EF940C3C
:101840007480948040047F0C800FC3EF9401EE6499
:10185000809480AF3B50027F01900002EF120FC9CD
:10186000AF3C7E00D3EF941F7480948040047F1FB0
:10187000800FC3EF9401EE64809480AF3C50027FF0
:1018800001900003EF120FC9D3E53D9417748094C3
:1018900080AF3D40027F17900004EF120FC9D3E5DF
:1018A0003E943B74809480AF3E40027F3B900005A5
:1018B000EF120FC9D3E53F943B74809480AF3F4053
:1018C000027F3B900006EF020FC98B368A378938BA
:1018D0008D39E4F53BF53C78217C007D017BFF7A76
:1018E0002E79DDFE7F05120F4BE538453745367002
:1018F000030219ECE53924B5700302198814603429
:1019000014605B240360030219B8AB36AA37A93808
:10191000120F71F53C7B007A00793C754163E4F568
:1019200042AD3A12243DAB36AA37A938E53C120F36
:10193000B70219B8AB36AA37A938900002120F8A3D
:10194000F53C7B007A00793C75410C754201AD3A5B
:1019500012243DAB36AA37A9389000028055AB3629
:10196000AA37A938900003120F8AF53C7B007A0051
:10197000793C75411F754201AD3A12243DAB36AA40
:1019800037A938900003802B753B01AB36AA37A9E5
:1019900038900001120F8AF53C7B007A00793C7583
:1019A0004107754201AD3A12243DAB36AA37A9383A
:1019B000900001E53C120FC974B62539F539900045
:1019C000217412F0E53904A3F0E53C75F00A84A314
:1019D000F0E53C75F00A84A3E5F0F07B017A00792C
:1019E00021754104754201E4FF1225FC22C0E0C0CC
:1019F000D075D000C007758B88758D96C28FE50FA6
:101A00006003021AEE20910A0509E509704D0508E8
:101A10008049D3E50994A0E508940F400CE50E7FBA
:101A2000DE60027FE08F0F802CD3E50994E8E508A3
:101A30009403400CE50E7FAB60027FCD8F0F8015C5
:101A4000D3E509940AE5089400400AE50E7FAA60F0
:101A5000027FCC8F0F75080075090020900A050BD6
:101A6000E50B7038050A8034D3E50B94A0E50A94A1
:101A70000F4005750FDF801ED3E50B94E8E50A944F
:101A8000034005750FBC800ED3E50B940AE50A945C
:101A9000004003750FBB750A00750B0020B70A05DF
:101AA0000DE50D705B050C8057D3E50D94A0E50C9A
:101AB000940F400CE50E7FE060027FDE8F0F803ACE
:101AC000D3E50D94E8E50C9403400CE50E7FCD6062
:101AD000027FAB8F0F8023D3E50D940AE50C9400B1
:101AE0004018E50E7FCC60027FAA8F0F800C75082E
:101AF00000750900750A00750B00750C00750D0066
:101B0000D007D0D0D0E0328B368A3789388D39E48F
:101B1000F53BF53C78217C007D017BFF7A2E79E74F
:101B2000FE7F05120F4BE538453745367003021C22
:101B30000FE53924956021146043146051146073DB
:101B400024046003021BDB900003122424AB36AA9A
:101B500037A938900003807EAB36AA37A9389000A9
:101B600004120F8AF53C7B007A00793C75413B12E8
:101B70002438AB36AA37A938900004805990000564
:101B8000122424AB36AA37A9389000058048AB361A
:101B9000AA37A938900006120F8AF53C7B007A001C
:101BA000793C75413B122438AB36AA37A9389000EE
:101BB000068023AB36AA37A938900007120F8AF5A2
:101BC0003C7B007A00793C754101122438AB36AA7F
:101BD00037A938900007E53C120FC974962539F5EE
:101BE00039900021740AF0E53904A3F0E53C75F062
:101BF0000A84A3F0E53C75F00A84A3E5F0F07B01CC
:101C00007A007921754104754201E4FF1225FC2216
:101C1000E4900021F0A3F0A3F0A3F0A3F0A3F075EB
:101C20003901753A00753B23753C01753D00753EE1
:101C3000257B017A007921121FF4EF6003021D1445
:101C4000900021E0605FC3900026E094059000259D
:101C5000E094004010900024E02401FF900023E075
:101C60003400FE8008900023E0FEA3E0FF900022F5
:101C7000EFF075F06484E5F0F07B017D25E4FF1260
:101C80002A2F900022E075F00A84FD7B017F01126B
:101C90002A2F900022E075F00A84ADF07B017F02CC
:101CA000122A2F8066900023E0FEA3E0FF7C007DD7
:101CB00064120FFDAF05900022EFF075F00A84FD6D
:101CC0007B01E4FF122A2F900022E075F00A84AD18
:101CD000F07B017F01122A2F900025E0FEA3E0FF98
:101CE0007C007D0A120FFD7B017F02122A2F122D2C
:101CF00022EF600B7547017B017D807F02800975B3
:101D000047017B017D807F0112249F7B017D147F31
:101D100003122A2F22753901753A00753B197B0190
:101D20007A0079118B368A3789387F01E94A4B70FE
:101D300003021E16E53B453A45397003021E16E5BF
:101D4000368537838538826539700AE53B65827050
:101D500004E53A65837003021E16AB39AA3AA93B23
:101D6000120F71AB36AA37A938120FB7AB39AA3A9E
:101D7000A93B900001120F8AAB36AA37A938900010
:101D800001120FC9AB39AA3AA93B900002120F8A7F
:101D9000AB36AA37A938900002120FC9AB39AA3A5C
:101DA000A93B900007120F8AAB36AA37A9389000DA
:101DB00007120FC9AB39AA3AA93B900003120F8A48
:101DC000AB36AA37A938900003120FC9AB39AA3A2B
:101DD000A93B900004120F8AAB36AA37A9389000AD
:101DE00004120FC9AB39AA3AA93B900005120F8A19
:101DF000AB36AA37A938900005120FC9AB39AA3AF9
:101E0000A93B900006120F8AAB36AA37A93890007A
:101E100006120FC9E4FF228B368A3789388D39E4E0
:101E2000F53BF53C78217C007D017BFF7A2E79E241
:101E3000FE7F05120F4BE538453745367003021F0C
:101E400005E53924AF603314605A24026003021E92
:101E5000D1AB36AA37A938120F71F53C7B007A0056
:101E6000793C75410C754201AD3A12243DAB36AA5E
:101E700037A938E53C120FB78057AB36AA37A938D7
:101E8000900001120F8AF53C7B007A00793C754185
:101E900001E4F542AD3A12243DAB36AA37A9389099
:101EA00000018028AB36AA37A938900002120F8AA9
:101EB000F53C7B007A00793C754104E4F542AD3A8B
:101EC00012243DAB36AA37A938900002E53C120F28
:101ED000C974B02539F5399000217416F0E539043C
:101EE000A3F0E53C75F00A84A3F0E53C75F00A84A4
:101EF000A3E5F0F07B017A00792175410475420178
:101F0000E4FF1225FC228B368A3789388D39E4F5B7
:101F10003B78217C007D017BFF7A2E79D8FE7F05FE
:101F2000120F4BE538453745367003021FF3E5398C
:101F300024C5603414605B24026003021FBFAB360B
:101F4000AA37A938900004120F8AF53B7B007A006B
:101F5000793B754117E4F542AD3A12243DAB36AA00
:101F600037A9389000048052AB36AA37A9389000C0
:101F700005120F8AF53B7B007A00793B75413BE403
:101F8000F542AD3A12243DAB36AA37A93890000588
:101F90008028AB36AA37A938900006120F8AF53B85
:101FA0007B007A00793B75413BE4F542AD3A12245F
:101FB0003DAB36AA37A938900006E53B120FC9742D
:101FC000C62539F539900021740CF0E53904A3F0E9
:101FD000E53B75F00A84A3F0E53B75F00A84A3E5C0
:101FE000F0F07B017A007921754104754201E4FF2C
:101FF0001225FC228B368A378938E4900027F0A31B
:10200000F0A3F0A3F07542017543007544297B01EC
:102010007A00792A1226B2EF60037F012290002A0B
:10202000E0FDFB7009900029E070037F0122EBFEC8
:10203000900029E0FBEBFF900027EEF0A3EFF0ED1E
:1020400030E72AAB36AA37A9387401120FB79000CF
:1020500027E0FEA3E0F4FFEEF4900027F0A3EFF0FA
:10206000E004F07006900027E004F0800AAB36AA86
:1020700037A938E4120FB7900027E0C4F854F0C82D
:10208000A3E0C4540F48FFAB39AA3AA93BE48FF050
:102090001210527E00900028E0540FFF7C027D71E8
:1020A000120FEB0C7DE8120FFDAB3CAA3DA93EEEF2
:1020B0008FF01210527F00227B007A00792C8B3631
:1020C0008A378938E4900021F078227C007D017BFA
:1020D000FF7A2E79ECFE7F03120F4BE5384537452A
:1020E00036607B753C01753D00753E22AB36AA37E4
:1020F000A93812001EEF7066900022E075F00A8485
:10210000FD7B01E4FF122A2F900022E075F00A8483
:10211000ADF07B017F01122A2F900024E075F00AB8
:1021200084FD7B017F02122A2F900024E075F00AC3
:1021300084ADF07B017F03122A2FE4900021F09000
:102140000021E0FFC39404E4940050127547017B22
:10215000017D8012249F900021E004F080E122E4C0
:10216000FCECC39404E494004003022201EC25E05B
:10217000246CF8E6FE08E6FF4E604BEC25E02456A2
:10218000F8E6FA08E6C39FEA9E500FEC25E02456D5
:10219000F80806E6187043068040EC25E02456F85F
:1021A000E4F608F6EC25E0245EF8E6FE08E64E7E4E
:1021B0000060047F0080027F01EC25E0245EF8A629
:1021C0000608A6078014EC25E02456F8E4F608F685
:1021D000EC25E0245EF8E4F608F6EC25E0245EF851
:1021E000E6FE08E64E600AEC04FF902F45E493807B
:1021F00008EC04FF74672CF8E6FD122C5A0C02213F
:1022000061228B3E8A3F89408D41E4F542F543F5DA
:1022100047F546F545F544F548F549F54AD3E54116
:1022200094007480948050037F01227F647E0012AA
:102230002C47AB3EAA3FA940AD411227048F478EE1
:10224000468D458C44754800754900754A44E4F54F
:1022500042F543E5412405FFE433FEE5432FFFE566
:10226000423EFE122BB5AB48AA49A94A8543828556
:102270004283120F8A6F60037F01220543E543709A
:10228000020542C39404E542940040C77F002278CF
:102290007FE4F6D8FD7581740222D602086CE493BF
:1022A000A3F8E493A34003F68001F208DFF4802949
:1022B000E493A3F85407240CC8C333C4540F442038
:1022C000C8834004F456800146F6DFE4800B010227
:1022D000040810204080902875E47E019360BCA320
:1022E000FF543F30E509541FFEE493A360010ECF75
:1022F00054C025E060A840B8E493A3FAE493A3F89F
:10230000E493A3C8C582C8CAC583CAF0A3C8C5825E
:10231000C8CAC583CADFE9DEE780BE8B408A41892F
:10232000428D43E4F544F545F549F548F547F54652
:10233000F54AF54BF54CD3E54394007480948050F6
:10234000037F01227F647E00122C47AB40AA41A983
:1023500042AD431227048F498E488D478C46754AFB
:1023600000754B00754C46E4F544F545E5432405FE
:10237000FFE433FEE5452FFFE5443EFEAB4AAA4BA2
:10238000A94C854582854483120F8AFD122BCB050B
:1023900045E54570020544C39404E544940040CCEF
:1023A0007F00228B398A3A893B8C3C8D3DE94A4B30
:1023B000600BD3E53D9400E53C940050037F01227F
:1023C0007F647E00122C47E4FFFE122C33AF3D12D7
:1023D000265A7F647E00122C47E4F53EF53FC3E5A4
:1023E0003F953DE53E953C5026E53F2405FFE4350D
:1023F0003EFEAB39AA3AA93B853F82853E83120F48
:102400008AFD122BCB053FE53F70D3053E80CF7F81
:10241000647E00122C47AB39AA3AA93BAD3D12238A
:102420001B7F0022AB36AA37A938120F8AF53C7BF6
:10243000007A00793C754117E4F542AD3A8B3D8A4C
:102440003E893F8D40E540645B6005ED645C704E05
:10245000AB3DAA3EA93F120F71FFE540645B7018C7
:102460000FE541FDEFFB3395E0FAD3EB9D7480F867
:102470006A984020AF42801CE540645C70161FE5FE
:1024800042FDEFFB3395E0FAC3EB9D7480F86A9848
:102490005002AF41AB3DAA3EA93FEF120FB7228DCC
:1024A000458B46AC07ECC39404E4940040037F01E1
:1024B00022E4FAEAC39408748094805054E547609B
:1024C0001C7E007401A802088005C333CE33CED829
:1024D000F9FFE545F582EF55826033801A7E00747E
:1024E00001A802088005C333CE33CED8F9FFE545F5
:1024F000F582EF55826008AF04AD02AB46800CAFA9
:1025000004AD02E5467B0070027B011225140A80AF
:10251000A27F0022EFC39404E49400506AEDC394B8
:1025200008748094805060E5746011EFF582C37484
:10253000039582F582E49400F5838006EFF58275B9
:102540008300AF82E5746008ED902F1793FE800240
:10255000AE05AD06EB601674672FF8C000E6FFA865
:10256000057401088002C333D8FC4F801774672FAD
:10257000F8C000E6FFAE05A8067401088002C33368
:10258000D8FCF45FD000F6228B398A3A893B8C3C28
:102590008D3DE94A4B600BD3E53D9400E53C94004A
:1025A00050037F0122AF3D1228B8EF60037F012264
:1025B0007F647E00122C47E4FDFCC3ED953DEC9555
:1025C0003C501FED2405FFE43CFE122BB5AB39AAAD
:1025D0003AA93B8D828C83EF120FC90DBD00010C0F
:1025E00080D87F647E00122C47AB39AA3AA93BAD54
:1025F0003D122202EF7F0060027F01228F3D8B3E61
:102600008A3F8940E4F543C3EF9404E494005018F2
:10261000E53D2541FFE433FED3EF9404EE6480945E
:10262000805005E94A4B70037F0122853D43E54315
:10263000C395415022C3E543953DFFE49400AB3E72
:10264000AA3FA9408F82F583120F8AFDAB42AF43A8
:10265000122A2F054380D77F00228F40E4F541F5F1
:1026600042F546F545F544F543F547F548F549D3B8
:10267000EF94007480948050037F01227F647E0079
:10268000122C47E4F541F542745B2542F582742F24
:102690003541F583E493FDAF42AE41122BCB0542A9
:1026A000E54270020541C39405E541940040D97F9D
:1026B00000228B3F8A408941E5107018122B50EFA1
:1026C00060037F01227FCC122B6B7F44122B6B7532
:1026D0001001802D30B62A122B507FCC122B6B7F2D
:1026E000BE122B6B122B9DAB42AA43A944EF120FD3
:1026F000B7122B9DAB3FAA40A941EF120FB7E4F5EB
:10270000107F00228B4D8A4E894F8D50E4F551F594
:1027100055F554F553F552F551E551C39550502CEC
:10272000AB4DAA4EA94F855182758300120F8AFFC7
:10273000E4FCFDFEE5552FF555EE3554F554ED3529
:1027400053F553EC3552F552055180CDAF55AE548B
:10275000AD53AC52228B368A378938E94A4B6042F6
:102760007405120FB7AB36AA37A938900001E412EE
:102770000FC99000027404120FC99000077401126F
:102780000FC99000037416120FC9900004741E1232
:102790000FC99000057407120FC9900006741E122D
:1027A0000FC9228E368F37E4F538F539F538C3E591
:1027B000389404E494005031E4F539C3E5399408C1
:1027C00074809480501FC374039538FFC3740795B9
:1027D00039FDE4FB12251412215FAF37AE36122B00
:1027E000E1053980D6053880C5228D36AE078B824B
:1027F0008A83EEC39404E494005009E5369404E41B
:10280000940040037F0122EE2536F536D39404E48C
:102810009400AF3640027F048F36A906E9C395368F
:10282000500CAF01AD82AC831229DC0980EE7F0031
:1028300022C2D5E830E70FB2D5E4C39BFBE49AFA95
:10284000E499F9E498F8EC30E717B2D5122867124A
:102850001184E4C39BFBE49AFAE499F9E498F880C4
:102860000312118430D50DE4C39FFFE49EFEE49D66
:10287000FDE49CFC22017400046700000000086C69
:102880000000000000000000016600016BFF085618
:102890000000000000000000085E000000000000D2
:1028A0000000010F00010E0002080000020A0000F3
:1028B000020C000001100000AD07E4FBFAD3EF9416
:1028C000007480948050037F01227F647E00122C6C
:1028D00047E4FAFBAF03AE02122BB5745B2BF58213
:1028E000742F3AF583E4936F60037F01220BBB00E2
:1028F000010AEB64054A70DC7F00228E368F37E4D4
:10290000F538F539F538C3E5389404E494005029D6
:10291000E4F539C3E53994087480948050177B013D
:10292000AD39AF3812251412215FAF37AE36122BF6
:10293000E1053980DE053880CD22AC07AB05122CCD
:102940000BEF60037F0122AF04122B161229B3EFA5
:102950006006122CF27F01221229AE122C0BEC041D
:10296000FF122B161229B3122AB8AE07122D0E121F
:102970002CF2AF06227B017A0079118B368A3789D7
:1029800038E94A4B6027120F71FF122AD8AB36AADA
:1029900037A938900001120F8AFF122CDEAB36AA3D
:1029A00037A938900001120F8AFF122CE822AF03DA
:1029B000122B16E4FEC2B3D2B4122CA230B415AF5F
:1029C000060EEFD394C87480948040F0C2B3122CEA
:1029D000A77F0122C2B3122CA77F0022EFC3940469
:1029E000E4940040037F0122E5746009EFFBC374A7
:1029F000039BFB8002EFFBAF03EF25E0246CF8A6FE
:102A00000408A6057F0022AE07AC03AB05122C0B11
:102A1000EF60037F0122AF06122B161229B3122991
:102A2000AEAF04122B161229B3122CF27F0022AE85
:102A300005EFC39404E49400500AEEC39427748015
:102A4000948040037F0122EE902F1F93FDE4F54711
:102A500012249F7F0022E4FD7F09122C5A7D0C7FF7
:102A60000A122C5A7D037F0B122C5A7D017F0C1207
:102A70002C5A1D7F0F022C5A7E08EEC394017480DD
:102A800094804013C292EFC330E701D39294EF25B4
:102A9000E0FFD2921E80E322E50FFDC394AA74806A
:102AA0009480400ED3ED94E0748094805004AF0F76
:102AB0008002E4FFE4F50F227E08E4FDD2B4AF0605
:102AC0001EEF600FED25E0FD122CA030B4F04305A1
:102AD0000180EBC2B3AF0522AD07E56B6D60178DCA
:102AE0006BEDD3940F74809480AF0540027F0FADDF
:102AF000077F0A122C5A22E4FEEEC39404E49400E9
:102B0000501374672EF8A607EE25E0246CF8E4F65F
:102B100008F60E80E422AE077D08AF051DEF6012B7
:102B2000C2B3122D28EE3392B4EE25E0FE122CA291
:102B300080E8C2B3227B017A0079118B368A37890B
:102B4000387F01E94A4B60077D087C001223A322ED
:102B5000D2B6C2B6122CFCD2B6122CBC7F0030B654
:102B6000027F01AD07122CFCAF0522AD077C01EC02
:102B700060125D6004D2008002C200122C8FEC252E
:102B8000E0FC80EB22438E4053890F438910758B04
:102B900088758D96C28FD2ABD2AFD28E22E4FDFC67
:102BA0000DED600E122C1F5003ED4204ED25E0FDEB
:102BB00080EFAF042275C78175C5018FC48EC375C0
:102BC000C65A75C6A500AFC2022CAF75C78175C5C0
:102BD000028FC48EC38DC275C65A75C6A500022C5D
:102BE000AFEF1FAA0670011E4A600A7D207C28DC18
:102BF000FEDDFC80EC228B368A3789387F01E94A7A
:102C00004B60077D087C0012258822D2B4D2B31213
:102C10002CA7C2B4122CA7C2B3122CA77F0022C2C9
:102C2000B6122D1CD2B6122D16A2B69200122CD3BB
:102C3000A2002275C78175C5038FC48EC375C65A9D
:102C400075C6A500022CAFEF1FAA0670011E4A60D0
:102C5000087D051DED60F080FA22E4F53AC293008C
:102C6000122A7800AF05122A7800D29322E5666412
:102C700001600A7D017F0C122C5A75660122E566FF
:102C80006402600AE4FD7F0C122C5A75660222C2AF
:102C9000B6122D1CA20092B6122CD3D2B6022D165B
:102CA000C2B3122CA7D2B30000007F0ADFFE22E4D9
:102CB000F5C7F5C5F5C675C380F5C422E400007FED
:102CC000037E7BDEFEDFFC22D2B4D2B37F0A7E001D
:102CD000022BE1E4007F027EDCDEFEDFFC22EF7FE0
:102CE0000060027F018F7422EF7F0060027F018FFE
:102CF0000E22C2B4122CA2D2B4022CA7E47F107E02
:102D000093DEFEDFFC22E4F50FF50E022B85D2B434
:102D1000122CA0C2B322E47F0EDFFE22E47F4EDF3E
:102D2000FE22AF7422022CC8000022000C9645003F
:102D30004D4AB8000D4A4C000DA5410025AAB60029
:102D4000056A49007AADBD00025D5200092D4700B9
:102D50005C95BA000A954E000B4A43004B5537006C
:102D60000AD54A00955ABF0004BA53000A5B4800CE
:102D7000652BBC00052B50000A934500474AB9005B
:102D800006AA4C000AD5410024DAB60004B64A006F
:102D900069573D000A4E51000D2646005E933A00E9
:102DA0000D534D0005AA430036B53700096D4B00A1
:102DB000B4AEBF0004AD53000A4D48006D25BC0001
:102DC0000D254F000D5244005DAA38000B5A4C00EF
:102DD000056D410024ADB600049B4A007A4BBE004D
:102DE0000A4B51000AA546005B52BA0006D24E00BB
:102DF0000ADA4200355B370009374B008497C1007F
:102E000004975300064B480066A53C000EA54F00F2
:102E100006B244004AB638000AAE4C00092E420001
:102E20003C9735000C9649007D4ABD000D4A510083
:102E30000DA5450055AABA00056A4E000A6D43006B
:102E4000452EB700052D4B008A95BF000A9553000B
:102E50000B4A47006B553B000AD54F00055A450009
:102E60004A5D38000A5B4C00052B42003A93B600DD
:102E7000069349007729BD0006AA51000AD54600ED
:102E800054DABA0004B64E000A574300452738000A
:102E90000D264A008E933E000D5252000DAA4700A7
:102EA00066B53B00056D4F0004AE45004A4EB900C3
:102EB0000A4D4C000D1541002D92B50000001F0079
:102EC0003B005A0078009700B500D400F3011101CF
:102ED00030014E0000000000000000000000000073
:102EE00000000000000000000000000000000000E2
:102EF00000000000000000000000000000000000D2
:102F000000000000000000000000000000000000C1
:102F10000000000000000000040506010203077E17
:102F2000306D79335B5F707F7B771F4E3D4F475E1F
:102F30007837170D0E671D42600C1831078040204E
:102F4000100804020100060305040201000000004D
:102F50000000000000000000000000574E415659DC
:012F60000070
:00000001FF
