:10000000022BB9E4FDFC0DED600E12349B5003ECA5
:100010004DFCED25E0FD80EFAF04220220C09000F2
:100020003DEBF0A3EAF0A3E9F09000431212900038
:100030000000009000471212900000000090004B5A
:100040001212900000000090004F12129000000069
:1000500000900053121290000000009000571212FE
:10006000900000000090005B1212900000000090D1
:10007000005F1212900000000090006312129000C6
:1000800000000090003DE0FBA3E0FAA3E04A4B60D3
:100090000CA3E0FBA3E0FAA3E04A4B70037F01222C
:1000A00090003DE0FBA3E0FAA3E0F91210E0FFD3DB
:1000B00094637480948040047F638000E4FCFDFEC0
:1000C0009000431212849000021210F9FF7E00D3B8
:1000D000940C7480948040047F0C8021C3EF9401C1
:1000E000EE6480948050047F01801290003DE0FB1C
:1000F000A3E0FAA3E0F99000021210F9FFE4FCFD7E
:10010000FE90004712128490003DE0FBA3E0FAA3AA
:10011000E0F99000031210F9FF7E00D3941F748061
:10012000948040047F1F8021C3EF9401EE6480948B
:100130008050047F01801290003DE0FBA3E0FAA311
:10014000E0F99000031210F9FFE4FCFDFE90004B73
:10015000121284900043A3A3E0FEA3E090357F75C4
:10016000F0041212C1EE25E025E02583F58312127A
:1001700064EF5460FFE4FEFDFC780512122AE47B74
:1001800001FAF9F8C31212199000437030A3A3E0EA
:10019000FEA3E090357F75F0041212C1EE25E02534
:1001A000E02583F583121264EF541FFFEF24FFFF55
:1001B000E434FFFEE434FFFDE434FF802BA3A3E02E
:1001C000FEA3E090357F75F0041212C1EE25E02504
:1001D000E02583F583121264EF541FFFEF241EFF06
:1001E000E433FEE433FDE433FC90004F12128490BC
:1001F0000047A3A3E0FEA3E090370D75F0021212B2
:10020000C1EE25E02583F583E493FE740193FFE4BA
:10021000FCFD90004BE0F8A3E0F9A3E0FAA3E02F87
:10022000FFEA3EFEED39FDEC38FCEF24FFFFEE3433
:10023000FFFEED34FFFDEC34FFFC900053121284FE
:10024000E47B04FAF9F8900043E0FCA3E0FDA3E0AE
:10025000FEA3E0FF1230D0AC00AD01AE02AF03EC64
:100260004D4E4F703E7F02FEFDFC900047E0F8A32C
:10027000E0F9A3E0FAA3E0FBD312120340259000BB
:1002800053E0FCA3E0FDA3E0FEA3E0FFE4FAF9F8ED
:10029000EF2401FFEA3EFEE93DFDE83CFC900053FF
:1002A00012128490004FE0FCA3E0FDA3E0FEA3E067
:1002B000FFA3E0F8A3E0F9A3E0FAA3E0FBC3121266
:1002C0000350030204EC900053E0FCA3E0FDA3E024
:1002D000FEA3E0FF90004FE0F8A3E0F9A3E0FAA34B
:1002E000E0FBEF9BFFEE9AFEED99FDEC98FCA3126C
:1002F00012849000471212900000000190005B12DF
:1003000012900000000190005F12129000000000A7
:1003100090005BA3A3A3E014F9E4FFFE7D08FCA812
:100320000112123D900043A3A3E0FAA3E090357FB1
:1003300075F0041212C1EA25E025E02583F5831249
:100340001274EB5FFFEA5EFEE95DFDE85CFCE4FB36
:10035000FAF9F8C31212199000577009121290009E
:1003600000001D80071212900000001E900057E050
:10037000FCA3E0FDA3E0FEA3E0FF900053E0F8A3A0
:10038000E0F9A3E0FAA3E0FBC31212035003020456
:10039000DC900053E0FCA3E0FDA3E0FEA3E0FFA39C
:1003A000E0F8A3E0F9A3E0FAA3E0FBEF9BFFEE9AED
:1003B000FEED99FDEC98FC90005312128490005BC6
:1003C000E0FCA3E0FDA3E0FEA3E0FFE4FAF9F8EF10
:1003D0002401FFEA3EFEE93DFDE83CFC90005B1293
:1003E0001284900043A3A3E0FEA3E090357F75F054
:1003F000041212C1EE25E025E02583F58312126474
:10040000E4FFFEED54F0FDE4FC781412122AA80477
:10041000A905AA06AB07900047E0FCA3E0FDA3E016
:10042000FEA3E0FFC3121219702D90005FE0FCA341
:10043000E0FDA3E0FEA3E0FF1211F690005F1212B0
:100440008490005FE0FCA3E0FDA3E0FEA3E0FFECEE
:100450004D4E4F70278000900047E0FCA3E0FDA3C5
:10046000E0FEA3E0FFE4FAF9F8EF2401FFEA3EFE24
:10047000E93DFDE83CFC90004712128490005BA32C
:10048000A3A3E014F9E4FFFE7D08FCA80112123DCD
:10049000900043A3A3E0FAA3E090357F75F0041227
:1004A00012C1EA25E025E02583F583121274EB5F83
:1004B000FFEA5EFEE95DFDE85CFCE4FBFAF9F8C3E7
:1004C000121219900057700A1212900000001D02BB
:1004D000036C1212900000001E02036C900053E0A7
:1004E000FCA3E0FDA3E0FEA3E002078D90004FE037
:1004F000FCA3E0FDA3E0FEA3E0FFA3E0F8A3E0F986
:10050000A3E0FAA3E0FBC3EF9BFFEE9AFEED99FD9B
:10051000EC98FC90004F121284900043E0FCA3E0A2
:10052000FDA3E0FEA3E0FFEF24FFFFEE34FFFEEDAE
:1005300034FFFDEC34FFFC9000431212849000471E
:100540001212900000000C900043A3A3E0FEA3E071
:1005500090357F75F0041212C1EE25E025E0258369
:10056000F583121264E4FFFEED54F0FDE4FC781410
:1005700012122AE4FBFAF9F8C312121990005B7008
:10058000091212900000000C800712129000000067
:100590000D90005F1212900000000090005BA3A37A
:1005A000A3E014F9E4FFFE7D08FCA80112123D90BF
:1005B0000043A3A3E0FAA3E090357F75F004121284
:1005C000C1EA25E025E02583F583121274EB5FFF75
:1005D000EA5EFEE95DFDE85CFCE4FBFAF9F8C312B3
:1005E000121990005770091212900000001D800728
:1005F0001212900000001E900057E0FCA3E0FDA343
:10060000E0FEA3E0FF90004FE0F8A3E0F9A3E0FADA
:10061000A3E0FBD3121203500302076590004FE0E2
:10062000FCA3E0FDA3E0FEA3E0FF900057E0F8A3E9
:10063000E0F9A3E0FAA3E0FBEF9BFFEE9AFEED9951
:10064000FDEC98FC90004F12128490005BE0FCA33C
:10065000E0FDA3E0FEA3E0FFEF24FFFFEE34FFFE8A
:10066000ED34FFFDEC34FFFC90005B12128490002F
:100670005FE0FCA3E0FDA3E0FEA3E0FFEC4D4E4FE6
:100680007024900047E0FCA3E0FDA3E0FEA3E0FFA0
:10069000EF24FFFFEE34FFFEED34FFFDEC34FFFCF2
:1006A000900047121284900043A3A3E0FEA3E090C1
:1006B000357F75F0041212C1EE25E025E02583F5A3
:1006C00083121264E4FFFEED54F0FDE4FC78141292
:1006D000122AA804A905AA06AB07900047E0FCA3CC
:1006E000E0FDA3E0FEA3E0FFC31212197017900013
:1006F0005FE0FCA3E0FDA3E0FEA3E0FF1211F69093
:10070000005F12128490005BA3A3A3E014F9E4FF3E
:10071000FE7D08FCA80112123D900043A3A3E0FA5D
:10072000A3E090357F75F0041212C1EA25E025E0C0
:100730002583F583121274EB5FFFEA5EFEE95DFD2F
:10074000E85CFCE4FBFAF9F8C31212199000577048
:100750000A1212900000001D0205F712129000000C
:10076000001E0205F790004FE0F8A3E0F9A3E0FABD
:10077000A3E0FB900057E0FCA3E0FDA3E0FEA3E0B4
:10078000C39BFFEE9AFEED99FDEC98FCEF2401FF70
:10079000E43EFEE43DFDE43CFC90004B12128490EC
:1007A0000063E0F8A3E0F9A3E0FAA3E0FB90004BBC
:1007B000E0FCA3E0FDA3E0FEA3E0FFEB4FFFEA4E69
:1007C000FEE94DFDE84CFC9000631212849000633A
:1007D000E0F8A3E0F9A3E0FAA3E0FBC00090004733
:1007E000E0FCA3E0FDA3E0FEA3E0FF7806121251B7
:1007F000D000EB4FFFEA4EFEE94DFDE84CFC9000C7
:1008000063121284900063A3A3A3E0543FFF9000FF
:1008100040E0FBA3E0FAA3E0F9900002EF121138E8
:10082000900063A3A3E0FEA3E054C0FFEE5403FED8
:10083000E4FDFC780612122AEF121126900043A361
:10084000A3E0FEA3E090357F75F0041212C1EE25FF
:10085000E025E02583F583121264E4FFFEED54F0F9
:10086000FDE4FC781412122AA804A905AA06AB0715
:10087000900047E0FCA3E0FDA3E0FEA3E0FFC3126D
:100880001219900040700FE0FBA3E0FAA3E0F9908A
:1008900000017401800CE0FBA3E0FAA3E0F99000F2
:1008A00001E41211387F0022E4900000F0A3F0A3CD
:1008B000F0A3741AF0A3742AF0A37420F0A3743A7E
:1008C000F0A3744AF0A37450F0A3746AF0A3745AAE
:1008D000F0780B7C007D017BFF7A3779437E007FC7
:1008E000071210BA78127C007D017BFF7A37794AB3
:1008F0007E007F071210BA78197C007D017BFF7A99
:100900003779517E007F071210BA78207C007D0174
:100910007BFF7A3779587E007F031210BA78237CE8
:10092000007D017BFF7A37795B7E007F081210BA69
:10093000782B7C007D017BFF7A3779637E007F080E
:100940001210BAE4900033F0A3F0A3F0123529128C
:1009500034011235797B017A007923123277EF6006
:100960000C7B017A007923122EB01231C3122FD1E1
:100970007F1E7E001230297F1E7E00122F18123239
:10098000EF900002EFF090000A745AF0EF7003024B
:100990000D39E4900033F0A3F0900003E064207080
:1009A0001A123430900003741AF09000337497F0E8
:1009B000E4900002F07F1EFE123029900002E02435
:1009C000567003020B9E24EF7003020C3814700360
:1009D000020ABD24F07003020C7A147003020CC4E6
:1009E00024EF7003020D2324336003020D399000BD
:1009F00003E004F0E0C3941F748094804003741AF1
:100A0000F0900003E0641A70159000057420F090D7
:100A10000004742AF0E4FBFA7D04FF122F799000A1
:100A200003E0641B701A900006743AF07B017A00B0
:100A30007912121BF27B037A007D027F02122F795A
:100A4000900003E0641C701A900007744AF07B0168
:100A50007A007919121BF27B037A007D027F021261
:100A60002F79900003E0641E70289000087450F005
:100A70009000397401F0A37400F0A37423F07B019B
:100A80007A00792B121F467B037A007D027F0212C7
:100A90002F79900003E0641D6003020D3990000976
:100AA000746AF09000397401F0A37400F0A3742309
:100AB000F07B017A00792B121F46020CBA900003DA
:100AC000E0641B703B7B017A007919121BF29000E5
:100AD00019E0900012F090001AE0900013F09000DE
:100AE0001BE0900014F090001CE0900015F07B01DA
:100AF0007A007912121681E4FBFA7D04FF122F7935
:100B0000900003E0641C70337B017A007912121BA1
:100B1000F2900016E090001DF0900017E090001E8B
:100B2000F0900018E090001FF07B017A0079191214
:100B30001681E4FBFA7D04FF122F79900003E06434
:100B40001E7012121F331231C3122FD1E4FBFA7D33
:100B500004FF122F79900003E0641D700F121F3301
:100B60001231C3E4FBFA7D04FF122F79900003E0F9
:100B7000641A6003020D39900005E004F0E0C394AC
:100B8000237480948040037420F0900005E064207A
:100B90007003020D399000347401F0020D39900099
:100BA00003E0FF7E00641A701B900005E064207073
:100BB00013900004E004F0E0C3942F74809480400C
:100BC00003742AF0EF641B4E7013900006E004F0EB
:100BD000E0C3943D748094804003743AF090000325
:100BE000E0641C7013900007E004F0E0C3944E74BE
:100BF0008094804003744AF0900003E0FF7E00641C
:100C00001E7013900008E004F0E0C39453748094C5
:100C10008040037450F0EF641D4E6003020D399064
:100C20000009E004F0E0C3946F74809480500302E4
:100C30000D39746AF0020D39900003E0FF7E006404
:100C40001A7013900005E004F0E0C39423748094BC
:100C50008040037420F0EF641B4E6016900003E0A8
:100C6000FF641C600DEF641E6008EF641D600302EA
:100C70000D3990000A745BF08040900003E0FF7E25
:100C800000641A7013900005E014F0E0C39420741F
:100C900080948050037422F0EF641B4E6016900025
:100CA00003E0FF641C600DEF641E6008EF641D60CC
:100CB00003020D3990000A745CF07B037A007D0218
:100CC0007F02805A900003E0FF7E00641A7021903A
:100CD0000005E014F0E0C394207480948050037405
:100CE00022F0900005E0642060069000347401F06A
:100CF000EF641E4E70437B017A00792B122EB09068
:100D000000397401F0A37400F0A3742BF07B01127E
:100D10001F421231C3122FD1E4FBFA7D04FF122FC0
:100D2000798016900003E0641A700E7420F0E4904D
:100D30000033F07F1EFE122F18900033E004F0A362
:100D4000E06005E4900033F0900033E0D39496E443
:100D500094004017900003741AF09000057420F07E
:100D6000900004742AF0E4900033F0900003E064F3
:100D70001A7008FBFA7D04FF122F797B017A007943
:100D80000B121BF2900003E024E6B40800400302BB
:100D90000FD7900DA075F003A4C58325F0C583730C
:100DA000020DB8020E4C020E65020E97020E7E0274
:100DB0000FD7020EAE020EFB900005E024DF601F8D
:100DC000146021240270207B017A00790B900004CA
:100DD000E0FD900025E090003AF012139B8008128D
:100DE00024828003122808900011E07024900010E3
:100DF000E0FF7E007C007D0A12116CED4C701290B9
:100E000000037421F0E4900033F0900035F0020FFD
:100E1000D790002AE07003020FD7900026E0FF90E1
:100E2000000FE06F6003020FD7900027E0FF9000F3
:100E300010E06F6003020FD79000037420F0E4907D
:100E40000033F07F1EFE122F18020FD77B017A00AD
:100E50007912900006E0FD90000AE090003AF0124E
:100E60002374020FD77B017A007919900007E0FD07
:100E700090000AE090003AF0121D95020FD77B0116
:100E80007A00792B900008E0FD90000AE090003A8B
:100E9000F012222B020FD77B017A00792B900009E8
:100EA000E0FDA3E090003AF012187F020FD7E4FFB4
:100EB00012324C123446E4900033F090002AE07075
:100EC00003020FD7900028E0FF90000FE06F60034F
:100ED000020FD7900029E0FF900010E06F6003023E
:100EE0000FD7123430900003741AF09000337497C7
:100EF000F07F1E7E00123029020FD7900035E0FFF0
:100F00007E00C39414EE9400501AEF70057F1E12F9
:100F10002F187B017A00790B900025E090003AF0C1
:100F20007D2C8054900035E0FF7E00C39428EE9421
:100F300000501CEF641470057F1E122F187B017A7D
:100F400000790B900025E090003AF07D2D802990EB
:100F50000035E0FF7E00C3943CEE9400501FEF6428
:100F60002870057F1E122F187B017A00790B9000E4
:100F700025E090003AF07D2E12139B803A900035C8
:100F8000E0FF7E00C39450EE9400500FEF643C707D
:100F9000057F1E122F18122808801C900035E0FFD4
:100FA0007E00C39464EE94005015EF645070057F8A
:100FB0001E122F18122482900035E004F080187F52
:100FC0001E7E00122F18900003741AF0E490003572
:100FD000F09000337497F090000A745AF012266E65
:100FE0007F647E0012345C02097EE709F608DFFAAE
:100FF0008046E709F208DFFA803E88828C83E709A1
:10100000F0A3DFFA8032E309F608DFFA8078E3091B
:10101000F208DFFA807088828C83E309F0A3DFFA9C
:10102000806489828A83E0A3F608DFFA8058898287
:101030008A83E0A3F208DFFA804C80D280FA80C66F
:1010400080D4806980F28033801080A680EA809A04
:1010500080A880DA80E280CA803389828A83ECFAB1
:10106000E493A3C8C582C8CCC583CCF0A3C8C5820D
:10107000C8CCC583CCDFE9DEE7800D89828A83E4B2
:1010800093A3F608DFF9ECFAA9F0EDFB2289828A36
:1010900083ECFAE0A3C8C582C8CCC583CCF0A3C852
:1010A000C582C8CCC583CCDFEADEE880DB89828AD2
:1010B00083E493A3F208DFF980CC88F0EF60010E9F
:1010C0004E60C388F0ED2402B4040050B9F582EB01
:1010D0002402B4040050AF232345822390103A73B6
:1010E000BB010689828A83E0225002E722BBFE020E
:1010F000E32289828A83E49322BB010CE58229F5ED
:1011000082E5833AF583E0225006E92582F8E6225B
:10111000BBFE06E92582F8E222E58229F582E58315
:101120003AF583E49322BB010689828A83F0225038
:1011300002F722BBFE01F322F8BB010DE58229F57F
:1011400082E5833AF583E8F0225006E92582C8F665
:1011500022BBFE05E92582C8F222EF8DF0A4A8F09B
:10116000CF8CF0A428CE8DF0A42EFE22BC000BBEA6
:101170000029EF8DF084FFADF022E4CCF875F00883
:10118000EF2FFFEE33FEEC33FCEE9DEC984005FCB8
:10119000EE9DFE0FD5F0E9E4CEFD22EDF8F5F0EE80
:1011A0008420D21CFEADF075F008EF2FFFED33FD6B
:1011B0004007985006D5F0F222C398FD0FD5F0EA0B
:1011C00022C5F0F8A3E028F0C5F0F8E5821582709A
:1011D000021583E038F022BB010A89828A83F0E598
:1011E000F0A3F0225006F709A7F01922BBFE06F380
:1011F000E5F009F31922CFF4CFCEF4CECDF4CDCC67
:10120000F4CC22EB9FF5F0EA9E42F0E99D42F0EC2F
:101210006480C864809845F022EB9FF5F0EA9E4216
:10122000F0E99D42F0E89C45F022E8600FECC31322
:10123000FCED13FDEE13FEEF13FFD8F122E8601072
:10124000ECA2E713FCED13FDEE13FEEF13FFD8F055
:1012500022E8600FEFC333FFEE33FEED33FDEC33D6
:10126000FCD8F122E493FC740193FD740293FE74A4
:101270000393FF22E493F8740193F9740293FA74D0
:101280000393FB22ECF0A3EDF0A3EEF0A3EFF0222A
:10129000A8828583F0D083D0821212A71212A712DF
:1012A00012A71212A7E473E493A3C583C5F0C58304
:1012B000C8C582C8F0A3C583C5F0C583C8C582C8A8
:1012C00022A42582F582E5F03583F5832275F008A6
:1012D000758200EF2FFFEE33FECD33CDCC33CCC57E
:1012E0008233C5829BED9AEC99E58298400CF58299
:1012F000EE9BFEED9AFDEC99FC0FD5F0D6E4CEFB0B
:10130000E4CDFAE4CCF9A88222B800C1B90059BAF8
:10131000002DEC8BF084CFCECDFCE5F0CBF9781826
:10132000EF2FFFEE33FEED33FDEC33FCEB33FB1020
:10133000D703994004EB99FB0FD8E5E4F9FA22783A
:1013400018EF2FFFEE33FEED33FDEC33FCC933C94C
:1013500010D7059BE99A4007EC9BFCE99AF90FD856
:10136000E0E4C9FAE4CCFB2275F010EF2FFFEE3376
:10137000FEED33FDCC33CCC833C810D7079BEC9AB5
:10138000E899400AED9BFDEC9AFCE899F80FD5F03E
:10139000DAE4CDFBE4CCFAE4C8F922900036EBF0B5
:1013A000A3EAF0A3E9F0A3EDF0E490003BF0A3F092
:1013B000783D7C007D017BFF7A377927FE7F05121F
:1013C00010BA900036E0FBA3E0FAA3E04A4B7003AA
:1013D000021680A3E024D570030214BD147003022A
:1013E000152414700302158014700302162B2404B4
:1013F0006003021680900036E0FBA3E0FAA3E0242D
:1014000004F9E43AFA1210E075F06484E5F0121180
:1014100026900036E0FBA3E0FAA3E02405F9E43AC5
:10142000FA1210E075F06484E5F01211269000368F
:10143000E0FBA3E0FAA3E0F99000041210F975F0C4
:101440000A84FD7B01E4FF1232A1900036E0FBA389
:10145000E0FAA3E0F99000041210F975F00A84ADE7
:10146000F07B017F011232A1900036E0FBA3E0FA8D
:10147000A3E0F99000051210F975F00A84FD7B01D4
:101480007F021232A1900036E0FBA3E0FAA3E0F95C
:101490009000051210F975F00A84ADF07B017F030E
:1014A0001232A1900036E0FBA3E0FAA3E0F990002D
:1014B000061210F9FF90003AE0FD021A3D90003646
:1014C000E0FBA3E0FAA3E02406F9E43AFA1210E004
:1014D00075F06484E5F01211267B017D26E4FF128D
:1014E00032A1900036E0FBA3E0FAA3E0F9900006F9
:1014F0001210F975F00A84FD7B017F011232A19070
:101500000036E0FBA3E0FAA3E0F99000061210F920
:1015100075F00A84ADF07B017F021232A17B017D60
:101520002602167B900036E0FBA3E0FAA3E0F91256
:1015300010E075F06484E5F01211267B017D02E471
:10154000FF1232A17B01E4FD7F011232A19000362F
:10155000E0FBA3E0FAA3E0F91210E075F00A84FDC5
:101560007B017F021232A1900036E0FBA3E0FAA3D8
:10157000E0F91210E075F00A84ADF07B0102167BF1
:10158000900036E0FBA3E0FAA3E02402F9E43AFA83
:101590001210E075F06484E5F0121126900036E038
:1015A000FBA3E0FAA3E02403F9E43AFA1210E07591
:1015B000F06484E5F0121126900036E0FBA3E0FA17
:1015C000A3E0F99000021210F975F00A84FD7B0186
:1015D000E4FF1232A1900036E0FBA3E0FAA3E0F9A9
:1015E0009000021210F975F00A84ADF07B017F01C2
:1015F0001232A1900036E0FBA3E0FAA3E0F99000DC
:10160000031210F975F00A84FD7B017F021232A1EA
:10161000900036E0FBA3E0FAA3E0F990000312107B
:10162000F975F00A84ADF07B018050900036E0FB44
:10163000A3E0FAA3E02401F9E43AFA1210E075F00D
:101640006484E5F01211267B017D26E4FF1232A1AD
:101650007B017D257F011232A1900036E0FBA3E0E3
:10166000FAA3E0F99000011210F975F00A84ADF0C8
:101670007B017F021232A17B017D257F031232A103
:1016800022900036EBF0A3EAF0A3E9F0E4A3F0A384
:10169000F0783B7C007D017BFF7A3779A1FE7F07E4
:1016A0001210BA900036E0FBA3E0FAA3E0F91210A2
:1016B000E0FFD394637480948040047F6380009043
:1016C000003BEFF09000011210F9FF7E00D3940769
:1016D0007480948040047F078021C3EF9401EE64FE
:1016E00080948050047F018012900036E0FBA3E0DC
:1016F000FAA3E0F99000011210F9FF90003CEFF01E
:10170000900036E0FBA3E0FAA3E0F990000212108B
:10171000F9FF7E00D3940C7480948040047F0C8089
:1017200021C3EF9401EE6480948050047F01801205
:10173000900036E0FBA3E0FAA3E0F990000212105B
:10174000F9FF90003DEFF0900036E0FBA3E0FAA334
:10175000E0F99000031210F9FF7E00D3941F74800B
:10176000948040047F1F8021C3EF9401EE64809435
:101770008050047F018012900036E0FBA3E0FAA3C2
:10178000E0F99000031210F9FF90003EEFF0900096
:1017900036E0FBA3E0FAA3E0F99000041210F9FF91
:1017A000D394177480948040067E177F1780009032
:1017B000003FEFF09000051210F9FFD3943B7480C6
:1017C000948040067E3B7F3B8000900040EFF0908D
:1017D0000036E0FBA3E0FAA3E0F99000061210F94E
:1017E000FFD3943B7480948040067E3B7F3B800017
:1017F000900041EFF0E4900039F0900039E0FFC331
:101800009407748094805044743B2FF582E4340034
:10181000F583E0FE75F00A84FD90003AF0743B2FEA
:10182000F582E43400F583EE75F00A84E5F0F0ED1E
:10183000C454F0FF900039E0243BF582E43400F515
:1018400083E02FF0900039E004F080AEE49000399E
:10185000F0900039E0C39407748094805020E0FF3A
:1018600090379A93FD743B2FF582E43400F583E0C2
:10187000FB7FD01232C9900039E004F080D322906F
:101880000036EBF0A3EAF0A3E9F0A3EDF0E490005A
:101890003BF0A3F0783D7C007D017BFF7A37793BFC
:1018A000FE7F051210BA900036E0FBA3E0FAA3E039
:1018B0004A4B7003021A3CA3E0249560571470034E
:1018C0000219491470030219861470030219BC240A
:1018D0000460030219FB900036E0FBA3E0FAA3E0EA
:1018E000F99000031210F990003CF07B017A007926
:1018F0003C90003AE0FD9000467417122AAE90002A
:101900003CE0FF900036E0FBA3E0FAA3E0F9900092
:10191000030219F7900036E0FBA3E0FAA3E0F99088
:1019200000041210F990003CF07A00793C90003AE3
:10193000122AA590003CE0FF900036E0FBA3E0FAFD
:10194000A3E0F99000040219F7900036E0FBA3E051
:10195000FAA3E0F99000051210F990003CF07B0129
:101960007A00793C90003AE0FD9000467417122A04
:10197000AE90003CE0FF900036E0FBA3E0FAA3E06D
:10198000F99000058071900036E0FBA3E0FAA3E037
:10199000F99000061210F990003CF07B017A007972
:1019A0003C90003A122AA790003CE0FF900036E0FD
:1019B000FBA3E0FAA3E0F9900006803B900036E03C
:1019C000FBA3E0FAA3E0F99000071210F990003CA5
:1019D000F07B017A00793C90003AE0FD900046747B
:1019E00001122AAE90003CE0FF900036E0FBA3E03D
:1019F000FAA3E0F9900007EF121138900039E024C3
:101A000096F090003D740AF0900039E00490003E9A
:101A1000F090003CE0FF75F00A8490003FF0EF7515
:101A2000F00A84A3E5F0F07B017A00793D9000464E
:101A30007404F0A37401F0E4FF122B2B22900042F7
:101A4000EFF0E4A3F0A3F0ED24FE7003021AE71414
:101A50007003021B12147003021B61240360030253
:101A60001BB1900042E0FF7E007C007D0512116CEE
:101A7000AF05900044EFF0C39404E49400503EE4BA
:101A8000900043F0900043E0FFC39404E4940040CE
:101A900003021BF1A3E0FEEF9E500890004C74017E
:101AA000F0800C900043E0FF90004C7401F0E4FBE8
:101AB0007D80122D5A900043E004F080C7E490002E
:101AC00043F0900043E0FFC39404E4940040030219
:101AD0001BF190004C7401F0E4FB7D80122D5A90B4
:101AE0000043E004F080DB9000437401F09000427A
:101AF000E05401700BA3E0FF90004C7401F0800CE7
:101B0000900043E0FF90004C7401F0E4FB7D800204
:101B10002D5A900042E05401900044F0E4900043BC
:101B2000F0900043E0FF7E00C39404EE9400400375
:101B3000021BF1C3EF9402EE94005005A3E0FB807A
:101B40000D900043E0FFA3E07B0070027B0190005A
:101B50004C7401F07D80122D5A900043E004F08017
:101B6000C0900042E05401900044F0E4900043F043
:101B7000900043E0FF7E00C39404EE940050727C1A
:101B8000007D0312116CED4C7007E0FFA3E0FB80B9
:101B90000D900043E0FFA3E07B0070027B0190000A
:101BA0004C7401F07D80122D5A900043E004F080C7
:101BB000BFE4900043F0900043E0FF7E00C3940434
:101BC000EE9400502C900042E05403B50709A39016
:101BD000004C7401F0800C900043E0FF90004C74C6
:101BE00001F0E4FB7D80122D5A900043E004F08068
:101BF000C522900036EBF0A3EAF0A3E9F078397C37
:101C0000007D017BFF7A3779A87E007F071210BA2A
:101C1000E4900040F0900040E0FFC394077480948B
:101C2000805058EF90379A93FD7FD0123155900035
:101C300040E0FE2439F582E43400F583EFF0743996
:101C40002EF582E43400F583E0FFC4540FFE9000CB
:101C500040E0FD2439F582E43400F583EF540FF0C1
:101C6000EE75F00AA4FF74392DF582E43400F58393
:101C7000E02FF0900040E004F0809A900039E0FFFF
:101C8000D394637480948040047F63800090003616
:101C9000E0FBA3E0FAA3E0F9EF12112690003AE08E
:101CA000FF7E00D394077480948040047F078014E3
:101CB000C3EF9401EE6480948050047F018005900E
:101CC000003AE0FF900036E0FBA3E0FAA3E0F990D1
:101CD0000001EF12113890003BE0FF7E00D3940C1E
:101CE0007480948040047F0C8014C3EF9401EE64F0
:101CF00080948050047F01800590003BE0FF9000BD
:101D000036E0FBA3E0FAA3E0F9900002EF121138ED
:101D100090003CE0FF7E00D3941F748094804004C8
:101D20007F1F8014C3EF9401EE6480948050047F81
:101D300001800590003CE0FF900036E0FBA3E0FA54
:101D4000A3E0F9900003EF12113890003DE0FFD3BB
:101D500094177480948040047F178000900004EFF3
:101D600012113890003EE0FFD3943B748094804081
:101D7000047F3B8000900005EF12113890003FE097
:101D8000FFD3943B7480948040047F3B800090009C
:101D900006EF021138900036EBF0A3EAF0A3E9F069
:101DA000A3EDF0E490003BF0A3F0783D7C007D01D2
:101DB0007BFF7A377931FE7F051210BA900036E04A
:101DC000FBA3E0FAA3E04A4B7003021F32A3E02416
:101DD000B57003021EA7146049147003021E652427
:101DE000036003021EF1900036E0FBA3E0FAA3E0DB
:101DF000F91210E090003CF07B017A00793C9000F1
:101E00003AE0FD9000467463122AAE90003CE0FF79
:101E1000900036E0FBA3E0FAA3E0F9EF12112602EE
:101E20001EF1900036E0FBA3E0FAA3E0F990000277
:101E30001210F990003CF07B017A00793C90003A56
:101E4000E0FD900046740CF0A37401F0122AB290E9
:101E5000003CE0FF900036E0FBA3E0FAA3E0F9903D
:101E60000002021EED900036E0FBA3E0FAA3E0F9C9
:101E70009000031210F990003CF07B017A00793C4D
:101E800090003AE0FD900046741FF0A37401F01238
:101E90002AB290003CE0FF900036E0FBA3E0FAA3FA
:101EA000E0F9900003804690003B7401F09000360A
:101EB000E0FBA3E0FAA3E0F99000011210F9900012
:101EC0003CF07B017A00793C90003AE0FD900046BE
:101ED0007407F0A37401F0122AB290003CE0FF9066
:101EE0000036E0FBA3E0FAA3E0F9900001EF121145
:101EF00038900039E024B6F090003D7412F0900064
:101F000039E00490003EF090003CE0FF75F00A8458
:101F100090003FF0EF75F00A84A3E5F0F07B017AC2
:101F200000793D9000467404F0A37401F0E4FF12C0
:101F30002B2B227B0190003904F0A37400F0A374D2
:101F40002BF07A007923900036EBF0A3EAF0A3E9B6
:101F5000F07F01900036E0FBA3E0FAA3E04A4B706B
:101F6000030220BFA3E0FBA3E0FAA3E04A4B700307
:101F70000220BF900036E0FBA3E0FAA3E0F9C00323
:101F8000C002C001A3E0FBA3E0FAA3E0F9D082D035
:101F900083D0E06B7008E965827003EA65837003A3
:101FA0000220BF900039E0FBA3E0FAA3E0F9121091
:101FB000E0FF900036E0FBA3E0FAA3E0F9EF121196
:101FC00026900039E0FBA3E0FAA3E0F990000112AB
:101FD00010F9FF900036E0FBA3E0FAA3E0F99000CF
:101FE00001EF121138900039E0FBA3E0FAA3E0F909
:101FF0009000021210F9FF900036E0FBA3E0FAA374
:10200000E0F9900002EF121138900039E0FBA3E0F4
:10201000FAA3E0F99000071210F9FF900036E0FBF8
:10202000A3E0FAA3E0F9900007EF1211389000390D
:10203000E0FBA3E0FAA3E0F99000031210F9FF908F
:102040000036E0FBA3E0FAA3E0F9900003EF1211E1
:1020500038900039E0FBA3E0FAA3E0F99000041205
:1020600010F9FF900036E0FBA3E0FAA3E0F990003E
:1020700004EF121138900039E0FBA3E0FAA3E0F975
:102080009000051210F9FF900036E0FBA3E0FAA3E0
:10209000E0F9900005EF121138900039E0FBA3E061
:1020A000FAA3E0F99000061210F9FF900036E0FB69
:1020B000A3E0FAA3E0F9900006EF121138E4FF2242
:1020C000C0E0C083C082C0D075D000C005C006C0CB
:1020D00007758B88758D96C28F90008DE060030226
:1020E000220D209110900087E004F070639000862C
:1020F000E004F0805B900086E0FEA3E0FFD394A0B4
:10210000EE940F401190008CE07DDE60027DE09047
:10211000008DEDF08033D3EF94E8EE9403400C9003
:10212000008CE07FAB60027FCD8019D3900087E008
:10213000940A900086E09400400F90008CE07FAA03
:1021400060027FCC90008DEFF0900086E4F0A3F069
:10215000209010900089E004F07047900088E0041F
:10216000F0803F900088E0FEA3E0FFD394A0EE94BF
:102170000F400890008D74DFF08020D3EF94E8EEDC
:102180009403400890008D74BCF0800FD3EF940A44
:10219000EE9400400690008D74BBF0900088E4F04F
:1021A000A3F020B71090008BE004F0700690008A36
:1021B000E004F0806790008AE0FEA3E0FFD394A0E3
:1021C000EE940F400FA3E07DE060027DDE90008D75
:1021D000EDF08033D3EF94E8EE9403400C90008C44
:1021E000E07FCD60027FAB8019D390008BE0940A32
:1021F00090008AE09400400F90008CE07FCC600259
:102200007FAA90008DEFF090008AE4800C90008609
:10221000E4F0A3F0A3F0A3F0A3F0A3F0D007D0065E
:10222000D005D0D0D082D083D0E032900036EBF011
:10223000A3EAF0A3E9F0A3EDF0E490003BF0A3F0F3
:10224000783D7C007D017BFF7A377936FE7F051271
:1022500010BA900036E0FBA3E0FAA3E04A4B70030B
:10226000022373A3E024AF604D1470030222F32411
:10227000026003022332900036E0FBA3E0FAA3E001
:10228000F91210E090003CF07B017A00793C90005C
:102290003AE0FD900046740CF0A37401F0122AB2EB
:1022A00090003CE0FF900036E0FBA3E0FAA3E0F9E9
:1022B000EF121126807C900036E0FBA3E0FAA3E049
:1022C000F99000011210F990003CF07B017A00793E
:1022D0003C90003AE0FD9000467401122AAE900056
:1022E0003CE0FF900036E0FBA3E0FAA3E0F99000A9
:1022F00001803B900036E0FBA3E0FAA3E0F99000F8
:10230000021210F990003CF07B017A00793C9000B9
:102310003AE0FD9000467404122AAE90003CE0FFC3
:10232000900036E0FBA3E0FAA3E0F9900002EF1280
:102330001138900039E024B0F090003D7416F09010
:102340000039E00490003EF090003CE0FF75F00A98
:102350008490003FF0EF75F00A84A3E5F0F07B0174
:102360007A00793D9000467404F0A37401F0E4FF14
:10237000122B2B22900036EBF0A3EAF0A3E9F0A396
:10238000EDF0E490003BF0783C7C007D017BFF7A2F
:1023900037792CFE7F051210BA900036E0FBA3E0DF
:1023A000FAA3E04A4B7003022481A3E024C56044F1
:1023B00014606624026003022440900036E0FBA310
:1023C000E0FAA3E0F99000041210F990003BF07BD2
:1023D000017A00793B90003AE0FD7417122AAB9025
:1023E000003BE0FF900036E0FBA3E0FAA3E0F990A9
:1023F00000048048900036E0FBA3E0FAA3E09000E0
:1024000005122A9690003BE0FF900036E0FBA3E027
:10241000FAA3E0F99000058023900036E0FBA3E0EA
:10242000FAA3E0900006122A9690003BE0FF90008D
:1024300036E0FBA3E0FAA3E0F9900006EF121138B2
:10244000900039E024C6F090003C740CF090003904
:10245000E00490003DF090003BE0FF75F00A8490AE
:10246000003EF0EF75F00A84A3E5F0F07B017A00FE
:10247000793C9000467404F0A37401F0E4FF122B41
:102480002B22E4900036F0A3F0A3F0A3F0A3F0A376
:10249000F07B0190003F04F0A37400F0A37438F0C7
:1024A000A3EBF0A37400F0A3743AF07A007936122B
:1024B000258DEF600302258C900036E0605FC390AD
:1024C000003BE0940590003AE09400401090003901
:1024D000E02401FF900038E03400FE8008900038CE
:1024E000E0FEA3E0FF900037EFF075F06484E5F0C4
:1024F000F07B017D25E4FF1232A1900037E075F0FA
:102500000A84FD7B017F011232A1900037E075F053
:102510000A84ADF07B017F021232A1806690003800
:10252000E0FEA3E0FF7C007D6412116CAF0590001B
:1025300037EFF075F00A84FD7B01E4FF1232A190C1
:102540000037E075F00A84ADF07B017F011232A103
:1025500090003AE0FEA3E0FF7C007D0A12116C7B44
:10256000017F021232A1123573EF90004C600A74A1
:1025700001F0FB7D807F0280077401F0FB7D80FF0E
:10258000122D5A7B017D147F031232A12290003C50
:10259000EBF0A3EAF0A3E9F0E4900045F0A3F0A388
:1025A000F0A3F07B0190004C04F0A37400F0A3743E
:1025B00047F07A007948122E48EF60037F0122909D
:1025C0000048E0FDFB7009900047E070037F0122A6
:1025D000EBFE900047E0FBEBFF900045EEF0A3EF31
:1025E000F0ED30E72F90003CE0FBA3E0FAA3E0F928
:1025F0007401121126900045E0FEA3E0F4FFEEF412
:10260000900045F0A3EFF0E004F07006900045E084
:1026100004F0800F90003CE0FBA3E0FAA3E0F9E4B3
:10262000121126900045E0C4F854F0C8A3E0C45449
:102630000F48FF90003FE0FBA3E0FAA3E0F9E48F2E
:10264000F01211D77E00900046E0540FFF7C027D0F
:102650007112115A0C7DE812116C900042E0FBA33C
:10266000E0FAA3E0F9EE8FF01211D77F0022E4FC2C
:10267000ECC39404E49400400302274CEC25E024CE
:102680007DF582E43400F583E0FEA3E0FF4E60694F
:10269000EC25E02467F582E43400F583E0FAA3E05A
:1026A000C39FEA9E5015EC25E02467F582E43400D0
:1026B000F583E475F0011211C1805EEC25E024671A
:1026C000F582E43400F583E4F0A3F0EC25E0246F18
:1026D000F582E43400F583E0FEA3E04E7E00600462
:1026E0007F0080027F01EC25E0246FF582E4340056
:1026F000F583EEF0A3EFF08020EC25E02467F5826F
:10270000E43400F583E4F0A3F0EC25E0246FF582D7
:10271000E43400F583E4F0A3F0EC25E0246FF582C7
:10272000E43400F583E0FEA3E04E600AEC04FF9081
:102730003799E493800EEC04FF74782CF582E4342E
:1027400000F583E0FD1234860C0226702290003ED4
:10275000EBF0A3EAF0A3E9F0A3EDF0E4A3F0A3F01B
:10276000A312129000000000900048E4F0A3F0A330
:10277000F0900041E0D394007480948050037F0176
:10278000227F647E001234C390003EE0FBA3E0FA97
:10279000A3E0F9A3E0FD122CD09000441212849023
:1027A00000487401F0A37400F0A37444F0E49000B6
:1027B00042F0A3F0900042E0FEA3E0FFC39404EED9
:1027C00094005041900041E02405FDE433CD2FFFFB
:1027D000ED3EFE123419900048E0FBA3E0FAA3E0BE
:1027E000F9900042E0FCA3E0F5828C831210F96FAF
:1027F00060037F0122900043E004F070B790004234
:10280000E004F080AF7F00227B017A00790B90001A
:1028100036EBF0A3EAF0A3E9F0E4A3F0783A7C0009
:102820007D017BFF7A377940FE7F031210BA90005A
:1028300036E0FBA3E0FAA3E04A4B70030228C29003
:1028400000407401F0A37400F0A3743AF0900036D5
:10285000A3A3E0F912001EEF706890003AE075F053
:102860000A84FD7B01E4FF1232A190003AE075F08A
:102870000A84ADF07B017F011232A190003CE0752B
:10288000F00A84FD7B017F021232A190003CE075CA
:10289000F00A84ADF07B017F031232A1E49000398D
:1028A000F0900039E0FFC39404E4940050149000C9
:1028B0004C7401F0FB7D80122D5A900039E004F039
:1028C00080DF22900039EBF0A3EAF0A3E9F0A3EC5B
:1028D000F0A3EDF0900039E0FBA3E0FAA3E04A4B4F
:1028E000600FD390003DE0940090003CE0940050D5
:1028F000037F01227F647E001234C3E4FFFE1234A2
:102900007190003CA3E0FF122DD87F647E0012344A
:10291000C3E490003EF0A3F090003CE0FEA3E0FF93
:10292000A3E0FCA3E0FDC39FEC9E501BED2405FF3C
:10293000E490003912322190003FE004F070D99009
:10294000003EE004F080D17F647E001234C390002A
:1029500039E0FBA3E0FAA3E0F9A3A3E0FD122963A9
:102960007F0022900040EBF0A3EAF0A3E9F0A3ED92
:10297000F0E4A3F0A3F0A312129000000000900076
:102980004AE4F0A3F0A3F0900043E0D394007480F5
:10299000948050037F01227F647E001234C3900034
:1029A00040E0FBA3E0FAA3E0F9A3E0FD122CD090F5
:1029B000004612128490004A7401F0A37400F0A340
:1029C0007446F0E4900044F0A3F0900044E0FCA3CF
:1029D000E0FDC39404EC94005022900043E02405F1
:1029E000FFE433CF2DCF90004A123221900045E012
:1029F00004F070D6900044E004F080CE7F00229076
:102A00000039EBF0A3EAF0A3E9F0A3ECF0A3EDF0BA
:102A1000900039E0FBA3E0FAA3E04A4B600EA3E08C
:102A2000FCA3E0FDD39400EC940050037F0122AF9F
:102A300005123114EF60037F01227F647E0012349F
:102A4000C3E4FDFCD390003DE09D90003CE09C4041
:102A500024ED2405FFE43CFE123419900039E0FB1C
:102A6000A3E0FAA3E0F98D828C83EF1211380DBD3B
:102A700000010C80CF7F647E001234C3900039E0E7
:102A8000FBA3E0FAA3E0F9A3A3E0FD12274DEF7F3B
:102A90000060027F0122F91210F990003BF07A00E9
:102AA000793B90003A7B01E0FD743B900046F0E4F6
:102AB000A3F0900042EBF0A3EAF0A3E9F0A3EDF05D
:102AC000ED645B6005ED645C7060900042E0FBA328
:102AD000E0FAA3E0F91210E0FF900045E0FE645B2D
:102AE00070190FA3E0FDEFFB3395E0FAD3EB9D7473
:102AF00080F86A984025A3E0FF8020EE645C701B9C
:102B00001F900047E0FDEFFB3395E0FAC3EB9D74A7
:102B100080F86A985005900046E0FF900042E0FB84
:102B2000A3E0FAA3E0F9EF12112622900043EBF0A4
:102B3000A3EAF0A3E9F0900042EFF0E4900048F03F
:102B4000C3EF9404E494005025900046E0FF900009
:102B500042E02FFFE433FED3EF9404EE64809480D0
:102B6000500CA3E0FBA3E0FAA3E04A4B70037F0103
:102B700022900042E0900048F0900046E0FF900074
:102B800048E0C39F5030E0FF900042E0FDEFC39D5E
:102B9000FDE49400FCA3E0FBA3E0FAA3E0F98D823E
:102BA0008C831210F9FD900047E0FB1232A19000D7
:102BB00048E004F080C37F0022787FE4F6D8FD75FA
:102BC0008120022C000208A8E493A3F8E493A34018
:102BD00003F68001F208DFF48029E493A3F8540798
:102BE000240CC8C333C4540F4420C8834004F45693
:102BF000800146F6DFE4800B0102040810204080CB
:102C0000903080E47E019360BCA3FF543F30E5091F
:102C1000541FFEE493A360010ECF54C025E060A8CA
:102C200040B8E493A3FAE493A3F8E493A3C8C5825D
:102C3000C8CAC583CAF0A3C8C582C8CAC583CADFCB
:102C4000E9DEE780BEEFC39404E494004003022C65
:102C5000CFEDC39408748094805074900085E0FE9A
:102C60006011EFF582C374039582F582E49400F558
:102C7000838006EFF582758300AF82EE6008ED90E9
:102C8000376B93FE8002AE05AD06EB601E74782FA5
:102C9000F582E43400F583C083C082E0FFA80574A8
:102CA00001088002C333D8FC4F801F74782FF5824F
:102CB000E43400F583C083C082E0FFAE05A806744B
:102CC00001088002C333D8FCF45FD082D083F022A5
:102CD00090004DEBF0A3EAF0A3E9F0A3EDF0E4A33C
:102CE000F0A312129000000000E4900051F0900058
:102CF00050E0FFA3E0C39F5052A3E0F8A3E0F9A384
:102D0000E0FAA3E0FBC000C001C002C00390004D88
:102D1000E0FBA3E0FAA3E0F9900051E0F5827583AF
:102D2000001210F9FFE4FCFDFED003D002D001D068
:102D300000EB2FFFEE3AFEED39FDEC38FC9000522F
:102D4000121284900051E004F080A3900052E0FC45
:102D5000A3E0FDA3E0FEA3E0FF2290004AEDF0A374
:102D6000EBF0A907E9C39404E4940040037F012237
:102D7000E4FCECC3940874809480505990004CE0BB
:102D8000601C7E007401A804088005C333CE33CED6
:102D9000D8F9FF90004AE0FBEF5B6036801A7E00B6
:102DA0007401A804088005C333CE33CED8F9FF9050
:102DB000004AE0FBEF5B6009AF01AD04A3E0FB80DC
:102DC0000EAF01AD0490004BE07B0070027B01125E
:102DD0002C450C809D7F0022900040EFF0E4A3F092
:102DE000A3F0A312129000000000900047E4F0A3AB
:102DF000F0A3F0900040E0D39400748094805003DE
:102E00007F01227F647E001234C3E4900041F0A36E
:102E1000F0900041E0FEA3E0FF24AFF58274373E5E
:102E2000F583E493FD123233900042E004F0700623
:102E3000900041E004F0C3900042E094059000410E
:102E4000E0940040CC7F0022900049EBF0A3EAF030
:102E5000A3E9F090008EE0701B1233B4EF60037FA3
:102E600001227FCC1233CF7F441233CF90008E7477
:102E700001F0803930B6361233B47FCC1233CF7FB5
:102E8000BE1233CF12000390004CE0FBA3E0FAA384
:102E9000E0F9EF121126120003900049E0FBA3E0D5
:102EA000FAA3E0F9EF121126E490008EF07F0022E1
:102EB000900036EBF0A3EAF0A3E9F0900036E0FBD7
:102EC000A3E0FAA3E04A4B604E900036A3A3E0F9DA
:102ED0007405121126900036E0FBA3E0FAA3E0F996
:102EE000900001E41211389000027404121138901D
:102EF00000077401121138900003741612113890F3
:102F00000004741E121138900005740712113890D5
:102F10000006741E12113822900036EEF0A3EFF076
:102F2000E4A3F0A3F0900038F0900038E0C39404DC
:102F3000E494005043E4A3F0900039E0FEC3940809
:102F400074809480502A900038E0FFC374039FFF80
:102F5000C374079EFDE4FB122C4512266E900036CA
:102F6000E0FEA3E0FF12345C900039E004F080C87A
:102F7000900038E004F080B122900036EDF0A3EA32
:102F8000F0A3EBF0EFC39404E49400500B900036F0
:102F9000E09404E4940040037F0122900036E02F87
:102FA000F0E0FED39404E4940040047E048000909A
:102FB0000036EEF0A907900036E0FFE9C39F500EFF
:102FC000AF01A3E0FCA3E0FD1231900980E87F008F
:102FD000227B017A007923900036EBF0A3EAF0A37C
:102FE000E9F0900036E0FBA3E0FAA3E04A4B60383A
:102FF000900036A3A3E0F91210E0FF1233559000C1
:1030000036E0FBA3E0FAA3E0F99000011210F9FF0B
:10301000123510900036E0FBA3E0FAA3E0F990002F
:10302000011210F9FF12350322900036EEF0A3EFE3
:10303000F0E4A3F0A3F0900038F0900038E0C394DF
:1030400004E494005039E4A3F0900039E0FDC39407
:1030500008748094805020900038E0FF7B01122C8F
:103060004512266E900036E0FEA3E0FF12345C901D
:103070000039E004F080D2900038E004F080BB22F8
:1030800041008E0041008D0041008C00420086000E
:1030900000420088000042008A0000410085004490
:1030A00000780000000048007D00000000000000E3
:1030B000004100770041007CFF48006700000000ED
:1030C0000000000048006F00000000000000000049
:1030D000C2D5E830E70FB2D5E4C39BFBE49AFAE42B
:1030E00099F9E498F8EC30E717B2D51231061213CB
:1030F00009E4C39BFBE49AFAE499F9E498F88003A5
:1031000012130930D50DE4C39FFFE49EFEE49DFD3C
:10311000E49CFC22E4FDFCD3EF9400748094805086
:10312000037F01227F647E001234C3E4FCFDAF05FF
:10313000AE0412341974AF2DF58274373CF583E474
:10314000936F60037F01220DBD00010CED64054CFF
:1031500070DC7F0022AC07AB051234AFEF60037F59
:1031600001221231F3EF60061235557F0122AF03C1
:103170001233951231F81234AFEC04FF123395126A
:1031800031F8123375AE0712355F123555AF06228E
:10319000EFC39404E4940040037F0122900085E093
:1031A0006009EFFBC374039BFB8002EFFBAF03EFEF
:1031B00025E0247DF582E43400F583ECF0A3EDF006
:1031C0007F00227B017A007923900036EBF0A3EA9E
:1031D000F0A3E9F07F01900036E0FBA3E0FAA3E062
:1031E0004A4B600E900036A3A3E0F97D087C0012E4
:1031F00028C322AF04123395E4FEC2B3D2B4123412
:10320000E930B415AF060EEFD394C87480948040B3
:10321000F0C2B31234EE7F0122C2B31234EE7F004B
:10322000223CFEE0FBA3E0FAA3E0F98D828C83123E
:1032300010F9FD75C78175C5028FC4EEF5C3AF05E2
:103240008FC275C65A75C6A5000234F6E4FEEEC3F9
:103250009404E49400501F74782EF582E43400F551
:1032600083EFF0EE25E0247DF582E43400F583E47D
:10327000F0A3F00E80D822900036EBF0A3EAF0A382
:10328000E9F07F01900036E0FBA3E0FAA3E04A4BAF
:10329000600E900036A3A3E0F97D087C001229FFA0
:1032A00022EFC39404E49400500AEDC39427748081
:1032B000948040037F0122ED90377393FEFDE490EC
:1032C000004CF0122D5A7F0022AE07AC051234AF2D
:1032D000EF60037F0122AF061233951231F81231ED
:1032E000F3AF031233951231F81235557F00229057
:1032F000008DE0FDC394AA74809480400ED3ED94B9
:10330000E0748094805004E0FF8002E4FFE49000C9
:103310008DF022E4FD7F091234867D0C7F0A123481
:10332000867D037F0B1234867D017F0C1234861D4F
:103330007F0F0234867E08EEC3940174809480402F
:1033400013C292EFC330E701D39294EF25E0FFD28E
:10335000921E80E32290007CE06F6018EFF0D3941F
:103360000F74809480AE0740027E0FAF06AD077FDA
:103370000A123486227E08E4FDD2B4AF061EEF6046
:103380000FED25E0FD1234E730B4F04401FD80EB91
:10339000C2B3AF0522AE077D08AF051DEF6012C2B4
:1033A000B312357CEE3392B4EE25E0FE1234E980A0
:1033B000E8C2B322D2B6C2B612354BD2B612351D10
:1033C0007F0030B6027F01AD0712354BAF0522AD4D
:1033D000077C01EC60125D6004D2008002C2001222
:1033E00034D6EC25E0FC80EB22438E4053890F431A
:1033F0008910758B88758D96C28FD2ABD2AFD28E65
:10340000221233131234307F0C123355E4FF12357D
:1034100010E4FF12324C02266E75C78175C5018F0C
:10342000C4EEF5C375C65A75C6A500AFC20234F620
:10343000900077E06401600D7D017F0C123486906E
:1034400000777401F022900077E06402600DE4FDE3
:103450007F0C1234869000777402F022EF1FAA06C8
:1034600070011E4A600A7D207C28DCFEDDFC80ECB9
:103470002275C78175C5038FC4EEF5C375C65A752D
:10348000C6A5000234F6E490003AF0C2930012336D
:103490003500AF0512333500D29322C2B612356D16
:1034A000D2B6123567A2B69200123535A20022D2EA
:1034B000B4D2B31234EEC2B41234EEC2B31234EE4C
:1034C0007F0022EF1FAA0670011E4A60087D051DBD
:1034D000ED60F080FA22C2B612356DA20092B612EB
:1034E0003535D2B6023567C2B31234EED2B300001E
:1034F000007F0ADFFE22E4F5C7F5C5F5C675C38077
:10350000F5C422EF7F0060027F0190008CEFF02273
:10351000EF7F0060027F01900085EFF022E4000061
:103520007F037E7BDEFEDFFC22E490008DF09000C6
:103530008CF00233E9E4007F027EDCDEFEDFFC2259
:10354000D2B4D2B37F0A7E0002345CE47F107E9353
:10355000DEFEDFFC22C2B41234E9D2B40234EED271
:10356000B41234E7C2B322E47F0EDFFE22E47F4EC2
:10357000DFFE22900085E0FF22023540000022009D
:103580000C9645004D4AB8000D4A4C000DA541006F
:1035900025AAB600056A49007AADBD00025D520059
:1035A000092D47005C95BA000A954E000B4A43006E
:1035B0004B5537000AD54A00955ABF0004BA53004C
:1035C0000A5B4800652BBC00052B50000A934500A0
:1035D000474AB90006AA4C000AD5410024DAB600D1
:1035E00004B64A0069573D000A4E51000D264600B8
:1035F0005E933A000D534D0005AA430036B53700DF
:10360000096D4B00B4AEBF0004AD53000A4D480035
:103610006D25BC000D254F000D5244005DAA3800F9
:103620000B5A4C00056D410024ADB600049B4A00C6
:103630007A4BBE000A4B51000AA546005B52BA0005
:1036400006D24E000ADA4200355B370009374B00DC
:103650008497C10004975300064B480066A53C00C0
:103660000EA54F0006B244004AB638000AAE4C0020
:10367000092E42003C9735000C9649007D4ABD005A
:103680000D4A51000DA5450055AABA00056A4E0025
:103690000A6D4300452EB700052D4B008A95BF00EB
:1036A0000A9553000B4A47006B553B000AD54F0063
:1036B000055A45004A5D38000A5B4C00052B420064
:1036C0003A93B600069349007729BD0006AA510037
:1036D0000AD5460054DABA0004B64E000A57430031
:1036E000452738000D264A008E933E000D525200A9
:1036F0000DAA470066B53B00056D4F0004AE4500BE
:103700004A4EB9000A4D4C000D1541002D92B500EE
:1037100000001F003B005A0078009700B500D4005D
:10372000F301110130014E00000000000000000014
:103730000000000000000000000000000000000089
:103740000000000000000000000000000000000079
:103750000000000000000000000000000000000069
:103760000000000000000000000000000405060149
:103770000203077E306D79335B5F707F7B771F4E6E
:103780003D4F475E7837170D0E671D42600C1831AC
:10379000078040201008040201000603050402010E
:1037A00000000000000000000000000000000057C2
:0537B0004E41565900D6
:00000001FF
